{"abi":[{"type":"constructor","inputs":[],"stateMutability":"nonpayable"},{"type":"function","name":"access","inputs":[{"name":"","type":"uint256","internalType":"uint256"},{"name":"","type":"address","internalType":"address"}],"outputs":[{"name":"","type":"bool","internalType":"bool"}],"stateMutability":"view"},{"type":"function","name":"addNewVideo","inputs":[{"name":"owners","type":"address[]","internalType":"address[]"},{"name":"allocation","type":"uint256[]","internalType":"uint256[]"},{"name":"name","type":"string","internalType":"string"},{"name":"category","type":"string","internalType":"string"},{"name":"description","type":"string","internalType":"string"},{"name":"price","type":"uint256","internalType":"uint256"},{"name":"videoURI","type":"string","internalType":"string"}],"outputs":[],"stateMutability":"nonpayable"},{"type":"function","name":"buyVideo","inputs":[{"name":"videoId","type":"uint256","internalType":"uint256"}],"outputs":[],"stateMutability":"payable"},{"type":"function","name":"videoAddress","inputs":[],"outputs":[{"name":"","type":"address","internalType":"address"}],"stateMutability":"view"}],"bytecode":{"object":"0x6080604052348015600f57600080fd5b5030604051601b90606b565b6001600160a01b039091168152602001604051809103906000f0801580156046573d6000803e3d6000fd5b50600080546001600160a01b0319166001600160a01b03929092169190911790556078565b61221a80611d0283390190565b611c7b806100876000396000f3fe60806040526004361061003f5760003560e01c80633a2b10211461004457806378eadace1461005957806395e9463f14610096578063bbfa1a39146100e1575b600080fd5b610057610052366004610329565b610101565b005b34801561006557600080fd5b50600054610079906001600160a01b031681565b6040516001600160a01b0390911681526020015b60405180910390f35b3480156100a257600080fd5b506100d16100b136600461035e565b600160209081526000928352604080842090915290825290205460ff1681565b604051901515815260200161008d565b3480156100ed57600080fd5b506100576100fc366004610537565b6101e6565b60008054604051636cb504a560e11b8152600481018490526001600160a01b039091169190829063d96a094a90349060240160206040518083038185885af1158015610151573d6000803e3d6000fd5b50505050506040513d601f19601f820116820180604052508101906101769190610658565b9050806101bd5760405162461bcd60e51b81526020600482015260116024820152704973737565207768656e20627579696e6760781b604482015260640160405180910390fd5b50506000908152600160208181526040808420338552909152909120805460ff19169091179055565b600087876040516101f69061031c565b610201929190610681565b604051809103906000f08015801561021d573d6000803e3d6000fd5b506000805460405163e633de9360e01b81529293506001600160a01b031691829063e633de939061025c9086908c908c908c908c908c90600401610752565b6020604051808303816000875af115801561027b573d6000803e3d6000fd5b505050506040513d601f19601f8201168201806040525081019061029f91906107c3565b905060005b8a5181101561030f57600180600084815260200190815260200160002060008d84815181106102d5576102d56107dc565b6020908102919091018101516001600160a01b03168252810191909152604001600020805460ff19169115159190911790556001016102a4565b5050505050505050505050565b611453806107f383390190565b60006020828403121561033b57600080fd5b5035919050565b80356001600160a01b038116811461035957600080fd5b919050565b6000806040838503121561037157600080fd5b8235915061038160208401610342565b90509250929050565b634e487b7160e01b600052604160045260246000fd5b604051601f8201601f1916810167ffffffffffffffff811182821017156103c9576103c961038a565b604052919050565b600067ffffffffffffffff8211156103eb576103eb61038a565b5060051b60200190565b600082601f83011261040657600080fd5b8135610419610414826103d1565b6103a0565b8082825260208201915060208360051b86010192508583111561043b57600080fd5b602085015b8381101561045f5761045181610342565b835260209283019201610440565b5095945050505050565b600082601f83011261047a57600080fd5b8135610488610414826103d1565b8082825260208201915060208360051b8601019250858311156104aa57600080fd5b602085015b8381101561045f5780358352602092830192016104af565b600082601f8301126104d857600080fd5b813567ffffffffffffffff8111156104f2576104f261038a565b610505601f8201601f19166020016103a0565b81815284602083860101111561051a57600080fd5b816020850160208301376000918101602001919091529392505050565b600080600080600080600060e0888a03121561055257600080fd5b873567ffffffffffffffff81111561056957600080fd5b6105758a828b016103f5565b975050602088013567ffffffffffffffff81111561059257600080fd5b61059e8a828b01610469565b965050604088013567ffffffffffffffff8111156105bb57600080fd5b6105c78a828b016104c7565b955050606088013567ffffffffffffffff8111156105e457600080fd5b6105f08a828b016104c7565b945050608088013567ffffffffffffffff81111561060d57600080fd5b6106198a828b016104c7565b93505060a0880135915060c088013567ffffffffffffffff81111561063d57600080fd5b6106498a828b016104c7565b91505092959891949750929550565b60006020828403121561066a57600080fd5b8151801515811461067a57600080fd5b9392505050565b6040808252835190820181905260009060208501906060840190835b818110156106c45783516001600160a01b031683526020938401939092019160010161069d565b50508381036020808601919091528551808352918101925085019060005b818110156107005782518452602093840193909201916001016106e2565b50919695505050505050565b6000815180845260005b8181101561073257602081850181015186830182015201610716565b506000602082860101526020601f19601f83011685010191505092915050565b6001600160a01b038716815260c0602082018190526000906107769083018861070c565b8281036040840152610788818861070c565b9050828103606084015261079c818761070c565b905084608084015282810360a08401526107b6818561070c565b9998505050505050505050565b6000602082840312156107d557600080fd5b5051919050565b634e487b7160e01b600052603260045260246000fdfe608060405234801561001057600080fd5b5060405161145338038061145383398101604081905261002f91610533565b6040518060400160405280600981526020016804f574e4552534849560bc1b815250604051806040016040528060038152602001624f575360e81b815250816003908161007c9190610692565b5060046100898282610692565b50505060005b6005548110156101355760058382815181106100ad576100ad610750565b60209081029190910181015182546001810184556000938452919092200180546001600160a01b0319166001600160a01b03909216919091179055825161012d9084908390811061010057610100610750565b602002602001015183838151811061011a5761011a610750565b602002602001015161013d60201b60201c565b60010161008f565b5050506107be565b6001600160a01b03821661016c5760405163ec442f0560e01b8152600060048201526024015b60405180910390fd5b6101786000838361017c565b5050565b61018783838361023b565b6001600160a01b0383166000908152602081905260409020546000036101b0576101b083610365565b6001600160a01b03821660009081526006602052604090205460ff16610236576001600160a01b0382166000818152600660205260408120805460ff191660019081179091556005805491820181559091527f036b6384b5eca791c62761152d0c79bb0604c104a5fb6f4eb0703f3154bb3db00180546001600160a01b03191690911790555b505050565b6001600160a01b03831661026657806002600082825461025b919061077c565b909155506102d89050565b6001600160a01b038316600090815260208190526040902054818110156102b95760405163391434e360e21b81526001600160a01b03851660048201526024810182905260448101839052606401610163565b6001600160a01b03841660009081526020819052604090209082900390555b6001600160a01b0382166102f457600280548290039055610313565b6001600160a01b03821660009081526020819052604090208054820190555b816001600160a01b0316836001600160a01b03167fddf252ad1be2c89b69c2b068fc378daa952ba7f163c4a11628f55a4df523b3ef8360405161035891815260200190565b60405180910390a3505050565b60005b600554811015610178576005818154811061038557610385610750565b6000918252602090912001546001600160a01b039081169083160361045557600580546103b490600190610795565b815481106103c4576103c4610750565b600091825260209091200154600580546001600160a01b0390921691839081106103f0576103f0610750565b9060005260206000200160006101000a8154816001600160a01b0302191690836001600160a01b03160217905550600580548061042f5761042f6107a8565b600082815260209020810160001990810180546001600160a01b03191690550190555050565b600101610368565b634e487b7160e01b600052604160045260246000fd5b604051601f8201601f191681016001600160401b038111828210171561049b5761049b61045d565b604052919050565b60006001600160401b038211156104bc576104bc61045d565b5060051b60200190565b600082601f8301126104d757600080fd5b81516104ea6104e5826104a3565b610473565b8082825260208201915060208360051b86010192508583111561050c57600080fd5b602085015b83811015610529578051835260209283019201610511565b5095945050505050565b6000806040838503121561054657600080fd5b82516001600160401b0381111561055c57600080fd5b8301601f8101851361056d57600080fd5b805161057b6104e5826104a3565b8082825260208201915060208360051b85010192508783111561059d57600080fd5b6020840193505b828410156105d45783516001600160a01b03811681146105c357600080fd5b8252602093840193909101906105a4565b6020870151909550925050506001600160401b038111156105f457600080fd5b610600858286016104c6565b9150509250929050565b600181811c9082168061061e57607f821691505b60208210810361063e57634e487b7160e01b600052602260045260246000fd5b50919050565b601f82111561023657806000526020600020601f840160051c8101602085101561066b5750805b601f840160051c820191505b8181101561068b5760008155600101610677565b5050505050565b81516001600160401b038111156106ab576106ab61045d565b6106bf816106b9845461060a565b84610644565b6020601f8211600181146106f357600083156106db5750848201515b600019600385901b1c1916600184901b17845561068b565b600084815260208120601f198516915b828110156107235787850151825560209485019460019092019101610703565b50848210156107415786840151600019600387901b60f8161c191681555b50505050600190811b01905550565b634e487b7160e01b600052603260045260246000fd5b634e487b7160e01b600052601160045260246000fd5b8082018082111561078f5761078f610766565b92915050565b8181038181111561078f5761078f610766565b634e487b7160e01b600052603160045260246000fd5b610c86806107cd6000396000f3fe6080604052600436106100a05760003560e01c806323b872dd1161006457806323b872dd14610171578063313ce5671461019157806370a08231146101ad57806395d89b41146101e3578063a9059cbb146101f8578063dd62ed3e1461021857600080fd5b8063025e7c27146100ac57806306fdde03146100e9578063095ea7b31461010b57806318160ddd1461013b5780631b9265b81461015a57600080fd5b366100a757005b600080fd5b3480156100b857600080fd5b506100cc6100c7366004610a1d565b61025e565b6040516001600160a01b0390911681526020015b60405180910390f35b3480156100f557600080fd5b506100fe610288565b6040516100e09190610a36565b34801561011757600080fd5b5061012b610126366004610aa0565b61031a565b60405190151581526020016100e0565b34801561014757600080fd5b506002545b6040519081526020016100e0565b34801561016657600080fd5b5061016f610334565b005b34801561017d57600080fd5b5061012b61018c366004610aca565b610536565b34801561019d57600080fd5b50604051601281526020016100e0565b3480156101b957600080fd5b5061014c6101c8366004610b07565b6001600160a01b031660009081526020819052604090205490565b3480156101ef57600080fd5b506100fe61055a565b34801561020457600080fd5b5061012b610213366004610aa0565b610569565b34801561022457600080fd5b5061014c610233366004610b29565b6001600160a01b03918216600090815260016020908152604080832093909416825291909152205490565b6005818154811061026e57600080fd5b6000918252602090912001546001600160a01b0316905081565b60606003805461029790610b5c565b80601f01602080910402602001604051908101604052809291908181526020018280546102c390610b5c565b80156103105780601f106102e557610100808354040283529160200191610310565b820191906000526020600020905b8154815290600101906020018083116102f357829003601f168201915b5050505050905090565b600033610328818585610577565b60019150505b92915050565b60075460ff161561037c5760405162461bcd60e51b815260206004820152600d60248201526c496e76616c696420737461746560981b60448201526064015b60405180910390fd5b6007805460ff191660011790554760005b600554811015610528576000306001600160a01b03166318160ddd6040518163ffffffff1660e01b8152600401602060405180830381865afa1580156103d7573d6000803e3d6000fd5b505050506040513d601f19601f820116820180604052508101906103fb9190610b96565b306001600160a01b03166370a082316005858154811061041d5761041d610baf565b60009182526020909120015460405160e083901b6001600160e01b03191681526001600160a01b039091166004820152602401602060405180830381865afa15801561046d573d6000803e3d6000fd5b505050506040513d601f19601f820116820180604052508101906104919190610b96565b61049b9085610bdb565b6104a59190610bf2565b9050600080600584815481106104bd576104bd610baf565b60009182526020822001546040516001600160a01b039091169185919081818185875af1925050503d8060008114610511576040519150601f19603f3d011682016040523d82523d6000602084013e610516565b606091505b50506001909401935061038d92505050565b50506007805460ff19169055565b600033610544858285610589565b61054f858585610607565b506001949350505050565b60606004805461029790610b5c565b600033610328818585610607565b6105848383836001610666565b505050565b6001600160a01b03838116600090815260016020908152604080832093861683529290522054600019811461060157818110156105f257604051637dc7a0d960e11b81526001600160a01b03841660048201526024810182905260448101839052606401610373565b61060184848484036000610666565b50505050565b6001600160a01b03831661063157604051634b637e8f60e11b815260006004820152602401610373565b6001600160a01b03821661065b5760405163ec442f0560e01b815260006004820152602401610373565b61058483838361073b565b6001600160a01b0384166106905760405163e602df0560e01b815260006004820152602401610373565b6001600160a01b0383166106ba57604051634a1406b160e11b815260006004820152602401610373565b6001600160a01b038085166000908152600160209081526040808320938716835292905220829055801561060157826001600160a01b0316846001600160a01b03167f8c5be1e5ebec7d5bd14f71427d1e84f3dd0314c0f7b2291e5b200ac8c7c3b9258460405161072d91815260200190565b60405180910390a350505050565b6107468383836107f7565b6001600160a01b03831660009081526020819052604090205460000361076f5761076f83610921565b6001600160a01b03821660009081526006602052604090205460ff1661058457506001600160a01b03166000818152600660205260408120805460ff191660019081179091556005805491820181559091527f036b6384b5eca791c62761152d0c79bb0604c104a5fb6f4eb0703f3154bb3db00180546001600160a01b031916909117905550565b6001600160a01b0383166108225780600260008282546108179190610c14565b909155506108949050565b6001600160a01b038316600090815260208190526040902054818110156108755760405163391434e360e21b81526001600160a01b03851660048201526024810182905260448101839052606401610373565b6001600160a01b03841660009081526020819052604090209082900390555b6001600160a01b0382166108b0576002805482900390556108cf565b6001600160a01b03821660009081526020819052604090208054820190555b816001600160a01b0316836001600160a01b03167fddf252ad1be2c89b69c2b068fc378daa952ba7f163c4a11628f55a4df523b3ef8360405161091491815260200190565b60405180910390a3505050565b60005b600554811015610a19576005818154811061094157610941610baf565b6000918252602090912001546001600160a01b0390811690831603610a11576005805461097090600190610c27565b8154811061098057610980610baf565b600091825260209091200154600580546001600160a01b0390921691839081106109ac576109ac610baf565b9060005260206000200160006101000a8154816001600160a01b0302191690836001600160a01b0316021790555060058054806109eb576109eb610c3a565b600082815260209020810160001990810180546001600160a01b03191690550190555050565b600101610924565b5050565b600060208284031215610a2f57600080fd5b5035919050565b602081526000825180602084015260005b81811015610a645760208186018101516040868401015201610a47565b506000604082850101526040601f19601f83011684010191505092915050565b80356001600160a01b0381168114610a9b57600080fd5b919050565b60008060408385031215610ab357600080fd5b610abc83610a84565b946020939093013593505050565b600080600060608486031215610adf57600080fd5b610ae884610a84565b9250610af660208501610a84565b929592945050506040919091013590565b600060208284031215610b1957600080fd5b610b2282610a84565b9392505050565b60008060408385031215610b3c57600080fd5b610b4583610a84565b9150610b5360208401610a84565b90509250929050565b600181811c90821680610b7057607f821691505b602082108103610b9057634e487b7160e01b600052602260045260246000fd5b50919050565b600060208284031215610ba857600080fd5b5051919050565b634e487b7160e01b600052603260045260246000fd5b634e487b7160e01b600052601160045260246000fd5b808202811582820484141761032e5761032e610bc5565b600082610c0f57634e487b7160e01b600052601260045260246000fd5b500490565b8082018082111561032e5761032e610bc5565b8181038181111561032e5761032e610bc5565b634e487b7160e01b600052603160045260246000fdfea26469706673582212200bf2dd969fe6be39225d6481bdfde0e07a5437f4dd9d4c57d4217b04129a4ea764736f6c634300081a0033a2646970667358221220126bbcdb70361ed64693cb3f8dfa9ebd1a71e8424843f58e0574e0076bf63ae464736f6c634300081a0033608060405234801561001057600080fd5b5060405161221a38038061221a83398101604081905261002f916100ae565b60405180604001604052806005815260200164566964656f60d81b8152506040518060400160405280600381526020016256444f60e81b8152508160009081610078919061017d565b506001610085828261017d565b5050600880546001600160a01b0319166001600160a01b0393909316929092179091555061023b565b6000602082840312156100c057600080fd5b81516001600160a01b03811681146100d757600080fd5b9392505050565b634e487b7160e01b600052604160045260246000fd5b600181811c9082168061010857607f821691505b60208210810361012857634e487b7160e01b600052602260045260246000fd5b50919050565b601f82111561017857806000526020600020601f840160051c810160208510156101555750805b601f840160051c820191505b818110156101755760008155600101610161565b50505b505050565b81516001600160401b03811115610196576101966100de565b6101aa816101a484546100f4565b8461012e565b6020601f8211600181146101de57600083156101c65750848201515b600019600385901b1c1916600184901b178455610175565b600084815260208120601f198516915b8281101561020e57878501518255602094850194600190920191016101ee565b508482101561022c5786840151600019600387901b60f8161c191681555b50505050600190811b01905550565b611fd08061024a6000396000f3fe6080604052600436106101095760003560e01c806395d89b4111610095578063b88d4fde11610064578063b88d4fde146102f7578063c87b56dd14610317578063d96a094a14610337578063e633de931461034a578063e985e9c51461036a57600080fd5b806395d89b4114610263578063a22cb46514610278578063a449d45a14610298578063a574cea4146102ca57600080fd5b806323b872dd116100dc57806323b872dd146101bf57806342842e0e146101df5780636352211e146101ff57806370a082311461021f57806375794a3c1461024d57600080fd5b806301ffc9a71461010e57806306fdde0314610143578063081812fc14610165578063095ea7b31461019d575b600080fd5b34801561011a57600080fd5b5061012e6101293660046118f4565b61038a565b60405190151581526020015b60405180910390f35b34801561014f57600080fd5b506101586103b5565b60405161013a9190611961565b34801561017157600080fd5b50610185610180366004611974565b610447565b6040516001600160a01b03909116815260200161013a565b3480156101a957600080fd5b506101bd6101b83660046119a4565b610470565b005b3480156101cb57600080fd5b506101bd6101da3660046119ce565b61047f565b3480156101eb57600080fd5b506101bd6101fa3660046119ce565b61050f565b34801561020b57600080fd5b5061018561021a366004611974565b61052f565b34801561022b57600080fd5b5061023f61023a366004611a0b565b61053a565b60405190815260200161013a565b34801561025957600080fd5b5061023f60075481565b34801561026f57600080fd5b50610158610582565b34801561028457600080fd5b506101bd610293366004611a26565b610591565b3480156102a457600080fd5b506102b86102b3366004611974565b61059c565b60405161013a96959493929190611a62565b3480156102d657600080fd5b506102ea6102e5366004611974565b6107f9565b60405161013a9190611ad1565b34801561030357600080fd5b506101bd610312366004611c02565b610ac0565b34801561032357600080fd5b50610158610332366004611974565b610ad8565b61012e610345366004611974565b610be9565b34801561035657600080fd5b5061023f610365366004611c9e565b610faa565b34801561037657600080fd5b5061012e610385366004611d77565b6110f2565b60006001600160e01b03198216632483248360e11b14806103af57506103af82611120565b92915050565b6060600080546103c490611daa565b80601f01602080910402602001604051908101604052809291908181526020018280546103f090611daa565b801561043d5780601f106104125761010080835404028352916020019161043d565b820191906000526020600020905b81548152906001019060200180831161042057829003601f168201915b5050505050905090565b600061045282611170565b506000828152600460205260409020546001600160a01b03166103af565b61047b8282336111a9565b5050565b6001600160a01b0382166104ae57604051633250574960e11b8152600060048201526024015b60405180910390fd5b60006104bb8383336111b6565b9050836001600160a01b0316816001600160a01b031614610509576040516364283d7b60e01b81526001600160a01b03808616600483015260248201849052821660448201526064016104a5565b50505050565b61052a83838360405180602001604052806000815250610ac0565b505050565b60006103af82611170565b60006001600160a01b038216610566576040516322718ad960e21b8152600060048201526024016104a5565b506001600160a01b031660009081526003602052604090205490565b6060600180546103c490611daa565b61047b3383836112af565b6009602052600090815260409020805481906105b790611daa565b80601f01602080910402602001604051908101604052809291908181526020018280546105e390611daa565b80156106305780601f1061060557610100808354040283529160200191610630565b820191906000526020600020905b81548152906001019060200180831161061357829003601f168201915b50505050509080600101805461064590611daa565b80601f016020809104026020016040519081016040528092919081815260200182805461067190611daa565b80156106be5780601f10610693576101008083540402835291602001916106be565b820191906000526020600020905b8154815290600101906020018083116106a157829003601f168201915b5050505050908060020180546106d390611daa565b80601f01602080910402602001604051908101604052809291908181526020018280546106ff90611daa565b801561074c5780601f106107215761010080835404028352916020019161074c565b820191906000526020600020905b81548152906001019060200180831161072f57829003601f168201915b50505050509080600301549080600401805461076790611daa565b80601f016020809104026020016040519081016040528092919081815260200182805461079390611daa565b80156107e05780601f106107b5576101008083540402835291602001916107e0565b820191906000526020600020905b8154815290600101906020018083116107c357829003601f168201915b505050600590930154919250506001600160a01b031686565b61083b6040518060c00160405280606081526020016060815260200160608152602001600081526020016060815260200160006001600160a01b031681525090565b60008281526009602052604090819020815160c0810190925280548290829061086390611daa565b80601f016020809104026020016040519081016040528092919081815260200182805461088f90611daa565b80156108dc5780601f106108b1576101008083540402835291602001916108dc565b820191906000526020600020905b8154815290600101906020018083116108bf57829003601f168201915b505050505081526020016001820180546108f590611daa565b80601f016020809104026020016040519081016040528092919081815260200182805461092190611daa565b801561096e5780601f106109435761010080835404028352916020019161096e565b820191906000526020600020905b81548152906001019060200180831161095157829003601f168201915b5050505050815260200160028201805461098790611daa565b80601f01602080910402602001604051908101604052809291908181526020018280546109b390611daa565b8015610a005780601f106109d557610100808354040283529160200191610a00565b820191906000526020600020905b8154815290600101906020018083116109e357829003601f168201915b5050505050815260200160038201548152602001600482018054610a2390611daa565b80601f0160208091040260200160405190810160405280929190818152602001828054610a4f90611daa565b8015610a9c5780601f10610a7157610100808354040283529160200191610a9c565b820191906000526020600020905b815481529060010190602001808311610a7f57829003601f168201915b5050509183525050600591909101546001600160a01b031660209091015292915050565b610acb84848461047f565b610509338585858561134e565b6060610ae382611170565b5060008281526006602052604081208054610afd90611daa565b80601f0160208091040260200160405190810160405280929190818152602001828054610b2990611daa565b8015610b765780601f10610b4b57610100808354040283529160200191610b76565b820191906000526020600020905b815481529060010190602001808311610b5957829003601f168201915b505050505090506000610b9460408051602081019091526000815290565b90508051600003610ba6575092915050565b815115610bd8578082604051602001610bc0929190611de4565b60405160208183030381529060405292505050919050565b610be184611479565b949350505050565b6008546000906001600160a01b03163314610c345760405162461bcd60e51b815260206004820152600b60248201526a2727aa2fa6a0a720a3a2a960a91b60448201526064016104a5565b600082815260096020526040808220815160c08101909252805482908290610c5b90611daa565b80601f0160208091040260200160405190810160405280929190818152602001828054610c8790611daa565b8015610cd45780601f10610ca957610100808354040283529160200191610cd4565b820191906000526020600020905b815481529060010190602001808311610cb757829003601f168201915b50505050508152602001600182018054610ced90611daa565b80601f0160208091040260200160405190810160405280929190818152602001828054610d1990611daa565b8015610d665780601f10610d3b57610100808354040283529160200191610d66565b820191906000526020600020905b815481529060010190602001808311610d4957829003601f168201915b50505050508152602001600282018054610d7f90611daa565b80601f0160208091040260200160405190810160405280929190818152602001828054610dab90611daa565b8015610df85780601f10610dcd57610100808354040283529160200191610df8565b820191906000526020600020905b815481529060010190602001808311610ddb57829003601f168201915b5050505050815260200160038201548152602001600482018054610e1b90611daa565b80601f0160208091040260200160405190810160405280929190818152602001828054610e4790611daa565b8015610e945780601f10610e6957610100808354040283529160200191610e94565b820191906000526020600020905b815481529060010190602001808311610e7757829003601f168201915b5050509183525050600591909101546001600160a01b031660209091015260608101519091503414610efd5760405162461bcd60e51b81526020600482015260126024820152714e6f742074686520676f6f6420707269636560701b60448201526064016104a5565b6000808260a001516001600160a01b03163460405160006040518083038185875af1925050503d8060008114610f4f576040519150601f19603f3d011682016040523d82523d6000602084013e610f54565b606091505b509150915081610f9d5760405162461bcd60e51b81526020600482015260146024820152732330b4b632b2103a379039b2b7321022ba3432b960611b60448201526064016104a5565b600193505050505b919050565b6008546000906001600160a01b03163314610ff55760405162461bcd60e51b815260206004820152600b60248201526a2727aa2fa6a0a720a3a2a960a91b60448201526064016104a5565b600780546000918261100683611e13565b91905055905061101688826114ee565b6110208184611553565b6040805160c081018252888152602080820189905281830188905260608201879052608082018690526001600160a01b038b1660a08301526000848152600990915291909120815181906110749082611e81565b50602082015160018201906110899082611e81565b506040820151600282019061109e9082611e81565b5060608201516003820155608082015160048201906110bd9082611e81565b5060a09190910151600590910180546001600160a01b0319166001600160a01b03909216919091179055979650505050505050565b6001600160a01b03918216600090815260056020908152604080832093909416825291909152205460ff1690565b60006001600160e01b031982166380ac58cd60e01b148061115157506001600160e01b03198216635b5e139f60e01b145b806103af57506301ffc9a760e01b6001600160e01b03198316146103af565b6000818152600260205260408120546001600160a01b0316806103af57604051637e27328960e01b8152600481018490526024016104a5565b61052a83838360016115a3565b6000828152600260205260408120546001600160a01b03908116908316156111e3576111e38184866116a9565b6001600160a01b03811615611221576112006000856000806115a3565b6001600160a01b038116600090815260036020526040902080546000190190555b6001600160a01b03851615611250576001600160a01b0385166000908152600360205260409020805460010190555b60008481526002602052604080822080546001600160a01b0319166001600160a01b0389811691821790925591518793918516917fddf252ad1be2c89b69c2b068fc378daa952ba7f163c4a11628f55a4df523b3ef91a4949350505050565b6001600160a01b0382166112e157604051630b61174360e31b81526001600160a01b03831660048201526024016104a5565b6001600160a01b03838116600081815260056020908152604080832094871680845294825291829020805460ff191686151590811790915591519182527f17307eab39ab6107e8899845ad3d59bd9653f200f220920489ca2b5937696c31910160405180910390a3505050565b6001600160a01b0383163b1561147257604051630a85bd0160e11b81526001600160a01b0384169063150b7a0290611390908890889087908790600401611f40565b6020604051808303816000875af19250505080156113cb575060408051601f3d908101601f191682019092526113c891810190611f7d565b60015b611434573d8080156113f9576040519150601f19603f3d011682016040523d82523d6000602084013e6113fe565b606091505b50805160000361142c57604051633250574960e11b81526001600160a01b03851660048201526024016104a5565b805181602001fd5b6001600160e01b03198116630a85bd0160e11b1461147057604051633250574960e11b81526001600160a01b03851660048201526024016104a5565b505b5050505050565b606061148482611170565b50600061149c60408051602081019091526000815290565b905060008151116114bc57604051806020016040528060008152506114e7565b806114c68461170d565b6040516020016114d7929190611de4565b6040516020818303038152906040525b9392505050565b6001600160a01b03821661151857604051633250574960e11b8152600060048201526024016104a5565b6000611526838360006111b6565b90506001600160a01b0381161561052a576040516339e3563760e11b8152600060048201526024016104a5565b600082815260066020526040902061156b8282611e81565b506040518281527ff8e1a15aba9398e019f0b49df1a4fde98ee17ae345cb5f6b5e2c27f5033e8ce79060200160405180910390a15050565b80806115b757506001600160a01b03821615155b156116795760006115c784611170565b90506001600160a01b038316158015906115f35750826001600160a01b0316816001600160a01b031614155b8015611606575061160481846110f2565b155b1561162f5760405163a9fbf51f60e01b81526001600160a01b03841660048201526024016104a5565b81156116775783856001600160a01b0316826001600160a01b03167f8c5be1e5ebec7d5bd14f71427d1e84f3dd0314c0f7b2291e5b200ac8c7c3b92560405160405180910390a45b505b5050600090815260046020526040902080546001600160a01b0319166001600160a01b0392909216919091179055565b6116b48383836117a0565b61052a576001600160a01b0383166116e257604051637e27328960e01b8152600481018290526024016104a5565b60405163177e802f60e01b81526001600160a01b0383166004820152602481018290526044016104a5565b6060600061171a83611803565b600101905060008167ffffffffffffffff81111561173a5761173a611b72565b6040519080825280601f01601f191660200182016040528015611764576020820181803683370190505b5090508181016020015b600019016f181899199a1a9b1b9c1cb0b131b232b360811b600a86061a8153600a850494508461176e57509392505050565b60006001600160a01b03831615801590610be15750826001600160a01b0316846001600160a01b031614806117da57506117da84846110f2565b80610be15750506000908152600460205260409020546001600160a01b03908116911614919050565b60008072184f03e93ff9f4daa797ed6e38ed64bf6a1f0160401b83106118425772184f03e93ff9f4daa797ed6e38ed64bf6a1f0160401b830492506040015b6d04ee2d6d415b85acef8100000000831061186e576d04ee2d6d415b85acef8100000000830492506020015b662386f26fc10000831061188c57662386f26fc10000830492506010015b6305f5e10083106118a4576305f5e100830492506008015b61271083106118b857612710830492506004015b606483106118ca576064830492506002015b600a83106103af5760010192915050565b6001600160e01b0319811681146118f157600080fd5b50565b60006020828403121561190657600080fd5b81356114e7816118db565b60005b8381101561192c578181015183820152602001611914565b50506000910152565b6000815180845261194d816020860160208601611911565b601f01601f19169290920160200192915050565b6020815260006114e76020830184611935565b60006020828403121561198657600080fd5b5035919050565b80356001600160a01b0381168114610fa557600080fd5b600080604083850312156119b757600080fd5b6119c08361198d565b946020939093013593505050565b6000806000606084860312156119e357600080fd5b6119ec8461198d565b92506119fa6020850161198d565b929592945050506040919091013590565b600060208284031215611a1d57600080fd5b6114e78261198d565b60008060408385031215611a3957600080fd5b611a428361198d565b915060208301358015158114611a5757600080fd5b809150509250929050565b60c081526000611a7560c0830189611935565b8281036020840152611a878189611935565b90508281036040840152611a9b8188611935565b90508560608401528281036080840152611ab58186611935565b91505060018060a01b03831660a0830152979650505050505050565b602081526000825160c06020840152611aed60e0840182611935565b90506020840151601f19848303016040850152611b0a8282611935565b9150506040840151601f19848303016060850152611b288282611935565b915050606084015160808401526080840151601f198483030160a0850152611b508282611935565b60a095909501516001600160a01b031660c09490940193909352509192915050565b634e487b7160e01b600052604160045260246000fd5b60008067ffffffffffffffff841115611ba357611ba3611b72565b50604051601f19601f85018116603f0116810181811067ffffffffffffffff82111715611bd257611bd2611b72565b604052838152905080828401851015611bea57600080fd5b83836020830137600060208583010152509392505050565b60008060008060808587031215611c1857600080fd5b611c218561198d565b9350611c2f6020860161198d565b925060408501359150606085013567ffffffffffffffff811115611c5257600080fd5b8501601f81018713611c6357600080fd5b611c7287823560208401611b88565b91505092959194509250565b600082601f830112611c8f57600080fd5b6114e783833560208501611b88565b60008060008060008060c08789031215611cb757600080fd5b611cc08761198d565b9550602087013567ffffffffffffffff811115611cdc57600080fd5b611ce889828a01611c7e565b955050604087013567ffffffffffffffff811115611d0557600080fd5b611d1189828a01611c7e565b945050606087013567ffffffffffffffff811115611d2e57600080fd5b611d3a89828a01611c7e565b9350506080870135915060a087013567ffffffffffffffff811115611d5e57600080fd5b611d6a89828a01611c7e565b9150509295509295509295565b60008060408385031215611d8a57600080fd5b611d938361198d565b9150611da16020840161198d565b90509250929050565b600181811c90821680611dbe57607f821691505b602082108103611dde57634e487b7160e01b600052602260045260246000fd5b50919050565b60008351611df6818460208801611911565b835190830190611e0a818360208801611911565b01949350505050565b600060018201611e3357634e487b7160e01b600052601160045260246000fd5b5060010190565b601f82111561052a57806000526020600020601f840160051c81016020851015611e615750805b601f840160051c820191505b818110156114725760008155600101611e6d565b815167ffffffffffffffff811115611e9b57611e9b611b72565b611eaf81611ea98454611daa565b84611e3a565b6020601f821160018114611ee35760008315611ecb5750848201515b600019600385901b1c1916600184901b178455611472565b600084815260208120601f198516915b82811015611f135787850151825560209485019460019092019101611ef3565b5084821015611f315786840151600019600387901b60f8161c191681555b50505050600190811b01905550565b6001600160a01b0385811682528416602082015260408101839052608060608201819052600090611f7390830184611935565b9695505050505050565b600060208284031215611f8f57600080fd5b81516114e7816118db56fea26469706673582212206fb57bcbf130cfa7a682f45b4480e739eff7d243658e713d1779583df8e9856464736f6c634300081a0033","linkReferences":{}},"methodIdentifiers":{"access(uint256,address)":"95e9463f","addNewVideo(address[],uint256[],string,string,string,uint256,string)":"bbfa1a39","buyVideo(uint256)":"3a2b1021","videoAddress()":"78eadace"},"id":41}