{"abi":[{"type":"constructor","inputs":[],"stateMutability":"nonpayable"},{"type":"function","name":"access","inputs":[{"name":"","type":"uint256","internalType":"uint256"},{"name":"","type":"address","internalType":"address"}],"outputs":[{"name":"","type":"bool","internalType":"bool"}],"stateMutability":"view"},{"type":"function","name":"addNewVideo","inputs":[{"name":"owners","type":"address[]","internalType":"address[]"},{"name":"allocation","type":"uint256[]","internalType":"uint256[]"},{"name":"name","type":"string","internalType":"string"},{"name":"category","type":"string","internalType":"string"},{"name":"description","type":"string","internalType":"string"},{"name":"videoURI","type":"string","internalType":"string"}],"outputs":[],"stateMutability":"nonpayable"},{"type":"function","name":"videoAddress","inputs":[],"outputs":[{"name":"","type":"address","internalType":"address"}],"stateMutability":"view"}],"bytecode":{"object":"0x6080604052348015600f57600080fd5b5030604051601b90606b565b6001600160a01b039091168152602001604051809103906000f0801580156046573d6000803e3d6000fd5b50600080546001600160a01b0319166001600160a01b03929092169190911790556078565b611c9b8061189d83390190565b611816806100876000396000f3fe608060405234801561001057600080fd5b50600436106100415760003560e01c806378eadace1461004657806395e9463f14610076578063f50288f9146100b4575b600080fd5b600054610059906001600160a01b031681565b6040516001600160a01b0390911681526020015b60405180910390f35b6100a4610084366004610225565b600160209081526000928352604080842090915290825290205460ff1681565b604051901515815260200161006d565b6100c76100c23660046103fe565b6100c9565b005b600086866040516100d9906101fc565b6100e4929190610514565b604051809103906000f080158015610100573d6000803e3d6000fd5b50600080546040516332670a2d60e01b81529293506001600160a01b03169182906332670a2d9061013d9086908b908b908b908b906004016105e5565b6020604051808303816000875af115801561015c573d6000803e3d6000fd5b505050506040513d601f19601f82011682018060405250810190610180919061064f565b905060005b89518110156101f057600180600084815260200190815260200160002060008c84815181106101b6576101b6610668565b6020908102919091018101516001600160a01b03168252810191909152604001600020805460ff1916911515919091179055600101610185565b50505050505050505050565b6111628061067f83390190565b80356001600160a01b038116811461022057600080fd5b919050565b6000806040838503121561023857600080fd5b8235915061024860208401610209565b90509250929050565b634e487b7160e01b600052604160045260246000fd5b604051601f8201601f1916810167ffffffffffffffff8111828210171561029057610290610251565b604052919050565b600067ffffffffffffffff8211156102b2576102b2610251565b5060051b60200190565b600082601f8301126102cd57600080fd5b81356102e06102db82610298565b610267565b8082825260208201915060208360051b86010192508583111561030257600080fd5b602085015b838110156103265761031881610209565b835260209283019201610307565b5095945050505050565b600082601f83011261034157600080fd5b813561034f6102db82610298565b8082825260208201915060208360051b86010192508583111561037157600080fd5b602085015b83811015610326578035835260209283019201610376565b600082601f83011261039f57600080fd5b813567ffffffffffffffff8111156103b9576103b9610251565b6103cc601f8201601f1916602001610267565b8181528460208386010111156103e157600080fd5b816020850160208301376000918101602001919091529392505050565b60008060008060008060c0878903121561041757600080fd5b863567ffffffffffffffff81111561042e57600080fd5b61043a89828a016102bc565b965050602087013567ffffffffffffffff81111561045757600080fd5b61046389828a01610330565b955050604087013567ffffffffffffffff81111561048057600080fd5b61048c89828a0161038e565b945050606087013567ffffffffffffffff8111156104a957600080fd5b6104b589828a0161038e565b935050608087013567ffffffffffffffff8111156104d257600080fd5b6104de89828a0161038e565b92505060a087013567ffffffffffffffff8111156104fb57600080fd5b61050789828a0161038e565b9150509295509295509295565b6040808252835190820181905260009060208501906060840190835b818110156105575783516001600160a01b0316835260209384019390920191600101610530565b50508381036020808601919091528551808352918101925085019060005b81811015610593578251845260209384019390920191600101610575565b50919695505050505050565b6000815180845260005b818110156105c5576020818501810151868301820152016105a9565b506000602082860101526020601f19601f83011685010191505092915050565b6001600160a01b038616815260a0602082018190526000906106099083018761059f565b828103604084015261061b818761059f565b9050828103606084015261062f818661059f565b90508281036080840152610643818561059f565b98975050505050505050565b60006020828403121561066157600080fd5b5051919050565b634e487b7160e01b600052603260045260246000fdfe608060405234801561001057600080fd5b5060405161116238038061116283398101604081905261002f91610533565b6040518060400160405280600981526020016804f574e4552534849560bc1b815250604051806040016040528060038152602001624f575360e81b815250816003908161007c9190610692565b5060046100898282610692565b50505060005b6005548110156101355760058382815181106100ad576100ad610750565b60209081029190910181015182546001810184556000938452919092200180546001600160a01b0319166001600160a01b03909216919091179055825161012d9084908390811061010057610100610750565b602002602001015183838151811061011a5761011a610750565b602002602001015161013d60201b60201c565b60010161008f565b5050506107be565b6001600160a01b03821661016c5760405163ec442f0560e01b8152600060048201526024015b60405180910390fd5b6101786000838361017c565b5050565b61018783838361023b565b6001600160a01b0383166000908152602081905260409020546000036101b0576101b083610365565b6001600160a01b03821660009081526006602052604090205460ff16610236576001600160a01b0382166000818152600660205260408120805460ff191660019081179091556005805491820181559091527f036b6384b5eca791c62761152d0c79bb0604c104a5fb6f4eb0703f3154bb3db00180546001600160a01b03191690911790555b505050565b6001600160a01b03831661026657806002600082825461025b919061077c565b909155506102d89050565b6001600160a01b038316600090815260208190526040902054818110156102b95760405163391434e360e21b81526001600160a01b03851660048201526024810182905260448101839052606401610163565b6001600160a01b03841660009081526020819052604090209082900390555b6001600160a01b0382166102f457600280548290039055610313565b6001600160a01b03821660009081526020819052604090208054820190555b816001600160a01b0316836001600160a01b03167fddf252ad1be2c89b69c2b068fc378daa952ba7f163c4a11628f55a4df523b3ef8360405161035891815260200190565b60405180910390a3505050565b60005b600554811015610178576005818154811061038557610385610750565b6000918252602090912001546001600160a01b039081169083160361045557600580546103b490600190610795565b815481106103c4576103c4610750565b600091825260209091200154600580546001600160a01b0390921691839081106103f0576103f0610750565b9060005260206000200160006101000a8154816001600160a01b0302191690836001600160a01b03160217905550600580548061042f5761042f6107a8565b600082815260209020810160001990810180546001600160a01b03191690550190555050565b600101610368565b634e487b7160e01b600052604160045260246000fd5b604051601f8201601f191681016001600160401b038111828210171561049b5761049b61045d565b604052919050565b60006001600160401b038211156104bc576104bc61045d565b5060051b60200190565b600082601f8301126104d757600080fd5b81516104ea6104e5826104a3565b610473565b8082825260208201915060208360051b86010192508583111561050c57600080fd5b602085015b83811015610529578051835260209283019201610511565b5095945050505050565b6000806040838503121561054657600080fd5b82516001600160401b0381111561055c57600080fd5b8301601f8101851361056d57600080fd5b805161057b6104e5826104a3565b8082825260208201915060208360051b85010192508783111561059d57600080fd5b6020840193505b828410156105d45783516001600160a01b03811681146105c357600080fd5b8252602093840193909101906105a4565b6020870151909550925050506001600160401b038111156105f457600080fd5b610600858286016104c6565b9150509250929050565b600181811c9082168061061e57607f821691505b60208210810361063e57634e487b7160e01b600052602260045260246000fd5b50919050565b601f82111561023657806000526020600020601f840160051c8101602085101561066b5750805b601f840160051c820191505b8181101561068b5760008155600101610677565b5050505050565b81516001600160401b038111156106ab576106ab61045d565b6106bf816106b9845461060a565b84610644565b6020601f8211600181146106f357600083156106db5750848201515b600019600385901b1c1916600184901b17845561068b565b600084815260208120601f198516915b828110156107235787850151825560209485019460019092019101610703565b50848210156107415786840151600019600387901b60f8161c191681555b50505050600190811b01905550565b634e487b7160e01b600052603260045260246000fd5b634e487b7160e01b600052601160045260246000fd5b8082018082111561078f5761078f610766565b92915050565b8181038181111561078f5761078f610766565b634e487b7160e01b600052603160045260246000fd5b610995806107cd6000396000f3fe608060405234801561001057600080fd5b506004361061009e5760003560e01c8063313ce56711610066578063313ce5671461013057806370a082311461013f57806395d89b4114610168578063a9059cbb14610170578063dd62ed3e1461018357600080fd5b8063025e7c27146100a357806306fdde03146100d3578063095ea7b3146100e857806318160ddd1461010b57806323b872dd1461011d575b600080fd5b6100b66100b136600461077e565b6101bc565b6040516001600160a01b0390911681526020015b60405180910390f35b6100db6101e6565b6040516100ca9190610797565b6100fb6100f6366004610801565b610278565b60405190151581526020016100ca565b6002545b6040519081526020016100ca565b6100fb61012b36600461082b565b610292565b604051601281526020016100ca565b61010f61014d366004610868565b6001600160a01b031660009081526020819052604090205490565b6100db6102b6565b6100fb61017e366004610801565b6102c5565b61010f61019136600461088a565b6001600160a01b03918216600090815260016020908152604080832093909416825291909152205490565b600581815481106101cc57600080fd5b6000918252602090912001546001600160a01b0316905081565b6060600380546101f5906108bd565b80601f0160208091040260200160405190810160405280929190818152602001828054610221906108bd565b801561026e5780601f106102435761010080835404028352916020019161026e565b820191906000526020600020905b81548152906001019060200180831161025157829003601f168201915b5050505050905090565b6000336102868185856102d3565b60019150505b92915050565b6000336102a08582856102e5565b6102ab858585610368565b506001949350505050565b6060600480546101f5906108bd565b600033610286818585610368565b6102e083838360016103c7565b505050565b6001600160a01b038381166000908152600160209081526040808320938616835292905220546000198114610362578181101561035357604051637dc7a0d960e11b81526001600160a01b038416600482015260248101829052604481018390526064015b60405180910390fd5b610362848484840360006103c7565b50505050565b6001600160a01b03831661039257604051634b637e8f60e11b81526000600482015260240161034a565b6001600160a01b0382166103bc5760405163ec442f0560e01b81526000600482015260240161034a565b6102e083838361049c565b6001600160a01b0384166103f15760405163e602df0560e01b81526000600482015260240161034a565b6001600160a01b03831661041b57604051634a1406b160e11b81526000600482015260240161034a565b6001600160a01b038085166000908152600160209081526040808320938716835292905220829055801561036257826001600160a01b0316846001600160a01b03167f8c5be1e5ebec7d5bd14f71427d1e84f3dd0314c0f7b2291e5b200ac8c7c3b9258460405161048e91815260200190565b60405180910390a350505050565b6104a7838383610558565b6001600160a01b0383166000908152602081905260409020546000036104d0576104d083610682565b6001600160a01b03821660009081526006602052604090205460ff166102e057506001600160a01b03166000818152600660205260408120805460ff191660019081179091556005805491820181559091527f036b6384b5eca791c62761152d0c79bb0604c104a5fb6f4eb0703f3154bb3db00180546001600160a01b031916909117905550565b6001600160a01b038316610583578060026000828254610578919061090d565b909155506105f59050565b6001600160a01b038316600090815260208190526040902054818110156105d65760405163391434e360e21b81526001600160a01b0385166004820152602481018290526044810183905260640161034a565b6001600160a01b03841660009081526020819052604090209082900390555b6001600160a01b03821661061157600280548290039055610630565b6001600160a01b03821660009081526020819052604090208054820190555b816001600160a01b0316836001600160a01b03167fddf252ad1be2c89b69c2b068fc378daa952ba7f163c4a11628f55a4df523b3ef8360405161067591815260200190565b60405180910390a3505050565b60005b60055481101561077a57600581815481106106a2576106a2610920565b6000918252602090912001546001600160a01b039081169083160361077257600580546106d190600190610936565b815481106106e1576106e1610920565b600091825260209091200154600580546001600160a01b03909216918390811061070d5761070d610920565b9060005260206000200160006101000a8154816001600160a01b0302191690836001600160a01b03160217905550600580548061074c5761074c610949565b600082815260209020810160001990810180546001600160a01b03191690550190555050565b600101610685565b5050565b60006020828403121561079057600080fd5b5035919050565b602081526000825180602084015260005b818110156107c557602081860181015160408684010152016107a8565b506000604082850101526040601f19601f83011684010191505092915050565b80356001600160a01b03811681146107fc57600080fd5b919050565b6000806040838503121561081457600080fd5b61081d836107e5565b946020939093013593505050565b60008060006060848603121561084057600080fd5b610849846107e5565b9250610857602085016107e5565b929592945050506040919091013590565b60006020828403121561087a57600080fd5b610883826107e5565b9392505050565b6000806040838503121561089d57600080fd5b6108a6836107e5565b91506108b4602084016107e5565b90509250929050565b600181811c908216806108d157607f821691505b6020821081036108f157634e487b7160e01b600052602260045260246000fd5b50919050565b634e487b7160e01b600052601160045260246000fd5b8082018082111561028c5761028c6108f7565b634e487b7160e01b600052603260045260246000fd5b8181038181111561028c5761028c6108f7565b634e487b7160e01b600052603160045260246000fdfea26469706673582212203fd966fa0e696ee738eb6495375d281aabbf0afaf897f6d60e8a4a83c4e0356764736f6c634300081a0033a2646970667358221220715e40298d2ccb7c0923322c1f9bcbf7b9d4b27dc74ee57ffaa14fb7d529605364736f6c634300081a0033608060405234801561001057600080fd5b50604051611c9b380380611c9b83398101604081905261002f916100ae565b60405180604001604052806005815260200164566964656f60d81b8152506040518060400160405280600381526020016256444f60e81b8152508160009081610078919061017d565b506001610085828261017d565b5050600880546001600160a01b0319166001600160a01b0393909316929092179091555061023b565b6000602082840312156100c057600080fd5b81516001600160a01b03811681146100d757600080fd5b9392505050565b634e487b7160e01b600052604160045260246000fd5b600181811c9082168061010857607f821691505b60208210810361012857634e487b7160e01b600052602260045260246000fd5b50919050565b601f82111561017857806000526020600020601f840160051c810160208510156101555750805b601f840160051c820191505b818110156101755760008155600101610161565b50505b505050565b81516001600160401b03811115610196576101966100de565b6101aa816101a484546100f4565b8461012e565b6020601f8211600181146101de57600083156101c65750848201515b600019600385901b1c1916600184901b178455610175565b600084815260208120601f198516915b8281101561020e57878501518255602094850194600190920191016101ee565b508482101561022c5786840151600019600387901b60f8161c191681555b50505050600190811b01905550565b611a518061024a6000396000f3fe608060405234801561001057600080fd5b506004361061010b5760003560e01c806370a08231116100a2578063a449d45a11610071578063a449d45a1461021e578063a574cea414610241578063b88d4fde14610261578063c87b56dd14610274578063e985e9c51461028757600080fd5b806370a08231146101e757806375794a3c146101fa57806395d89b4114610203578063a22cb4651461020b57600080fd5b806323b872dd116100de57806323b872dd1461018d57806332670a2d146101a057806342842e0e146101c15780636352211e146101d457600080fd5b806301ffc9a71461011057806306fdde0314610138578063081812fc1461014d578063095ea7b314610178575b600080fd5b61012361011e3660046113b2565b61029a565b60405190151581526020015b60405180910390f35b6101406102c5565b60405161012f919061141f565b61016061015b366004611432565b610357565b6040516001600160a01b03909116815260200161012f565b61018b610186366004611467565b610380565b005b61018b61019b366004611491565b61038f565b6101b36101ae36600461157e565b61041f565b60405190815260200161012f565b61018b6101cf366004611491565b610520565b6101606101e2366004611432565b610540565b6101b36101f536600461164f565b61054b565b6101b360075481565b610140610593565b61018b61021936600461166a565b6105a2565b61023161022c366004611432565b6105ad565b60405161012f94939291906116a6565b61025461024f366004611432565b6107f5565b60405161012f91906116fe565b61018b61026f36600461177c565b610a87565b610140610282366004611432565b610a9f565b6101236102953660046117f8565b610bb0565b60006001600160e01b03198216632483248360e11b14806102bf57506102bf82610bde565b92915050565b6060600080546102d49061182b565b80601f01602080910402602001604051908101604052809291908181526020018280546103009061182b565b801561034d5780601f106103225761010080835404028352916020019161034d565b820191906000526020600020905b81548152906001019060200180831161033057829003601f168201915b5050505050905090565b600061036282610c2e565b506000828152600460205260409020546001600160a01b03166102bf565b61038b828233610c67565b5050565b6001600160a01b0382166103be57604051633250574960e11b8152600060048201526024015b60405180910390fd5b60006103cb838333610c74565b9050836001600160a01b0316816001600160a01b031614610419576040516364283d7b60e01b81526001600160a01b03808616600483015260248201849052821660448201526064016103b5565b50505050565b6008546000906001600160a01b0316331461046a5760405162461bcd60e51b815260206004820152600b60248201526a2727aa2fa6a0a720a3a2a960a91b60448201526064016103b5565b600780546000918261047b83611865565b91905055905061048b8782610d6d565b6104958184610dd2565b604080516080810182528781526020808201889052818301879052606082018690526000848152600990915291909120815181906104d390826118d3565b50602082015160018201906104e890826118d3565b50604082015160028201906104fd90826118d3565b506060820151600382019061051290826118d3565b509198975050505050505050565b61053b83838360405180602001604052806000815250610a87565b505050565b60006102bf82610c2e565b60006001600160a01b038216610577576040516322718ad960e21b8152600060048201526024016103b5565b506001600160a01b031660009081526003602052604090205490565b6060600180546102d49061182b565b61038b338383610e22565b6009602052600090815260409020805481906105c89061182b565b80601f01602080910402602001604051908101604052809291908181526020018280546105f49061182b565b80156106415780601f1061061657610100808354040283529160200191610641565b820191906000526020600020905b81548152906001019060200180831161062457829003601f168201915b5050505050908060010180546106569061182b565b80601f01602080910402602001604051908101604052809291908181526020018280546106829061182b565b80156106cf5780601f106106a4576101008083540402835291602001916106cf565b820191906000526020600020905b8154815290600101906020018083116106b257829003601f168201915b5050505050908060020180546106e49061182b565b80601f01602080910402602001604051908101604052809291908181526020018280546107109061182b565b801561075d5780601f106107325761010080835404028352916020019161075d565b820191906000526020600020905b81548152906001019060200180831161074057829003601f168201915b5050505050908060030180546107729061182b565b80601f016020809104026020016040519081016040528092919081815260200182805461079e9061182b565b80156107eb5780601f106107c0576101008083540402835291602001916107eb565b820191906000526020600020905b8154815290600101906020018083116107ce57829003601f168201915b5050505050905084565b6108206040518060800160405280606081526020016060815260200160608152602001606081525090565b600082815260096020526040908190208151608081019092528054829082906108489061182b565b80601f01602080910402602001604051908101604052809291908181526020018280546108749061182b565b80156108c15780601f10610896576101008083540402835291602001916108c1565b820191906000526020600020905b8154815290600101906020018083116108a457829003601f168201915b505050505081526020016001820180546108da9061182b565b80601f01602080910402602001604051908101604052809291908181526020018280546109069061182b565b80156109535780601f1061092857610100808354040283529160200191610953565b820191906000526020600020905b81548152906001019060200180831161093657829003601f168201915b5050505050815260200160028201805461096c9061182b565b80601f01602080910402602001604051908101604052809291908181526020018280546109989061182b565b80156109e55780601f106109ba576101008083540402835291602001916109e5565b820191906000526020600020905b8154815290600101906020018083116109c857829003601f168201915b505050505081526020016003820180546109fe9061182b565b80601f0160208091040260200160405190810160405280929190818152602001828054610a2a9061182b565b8015610a775780601f10610a4c57610100808354040283529160200191610a77565b820191906000526020600020905b815481529060010190602001808311610a5a57829003601f168201915b5050505050815250509050919050565b610a9284848461038f565b6104193385858585610ec1565b6060610aaa82610c2e565b5060008281526006602052604081208054610ac49061182b565b80601f0160208091040260200160405190810160405280929190818152602001828054610af09061182b565b8015610b3d5780601f10610b1257610100808354040283529160200191610b3d565b820191906000526020600020905b815481529060010190602001808311610b2057829003601f168201915b505050505090506000610b5b60408051602081019091526000815290565b90508051600003610b6d575092915050565b815115610b9f578082604051602001610b87929190611992565b60405160208183030381529060405292505050919050565b610ba884610fec565b949350505050565b6001600160a01b03918216600090815260056020908152604080832093909416825291909152205460ff1690565b60006001600160e01b031982166380ac58cd60e01b1480610c0f57506001600160e01b03198216635b5e139f60e01b145b806102bf57506301ffc9a760e01b6001600160e01b03198316146102bf565b6000818152600260205260408120546001600160a01b0316806102bf57604051637e27328960e01b8152600481018490526024016103b5565b61053b8383836001611061565b6000828152600260205260408120546001600160a01b0390811690831615610ca157610ca1818486611167565b6001600160a01b03811615610cdf57610cbe600085600080611061565b6001600160a01b038116600090815260036020526040902080546000190190555b6001600160a01b03851615610d0e576001600160a01b0385166000908152600360205260409020805460010190555b60008481526002602052604080822080546001600160a01b0319166001600160a01b0389811691821790925591518793918516917fddf252ad1be2c89b69c2b068fc378daa952ba7f163c4a11628f55a4df523b3ef91a4949350505050565b6001600160a01b038216610d9757604051633250574960e11b8152600060048201526024016103b5565b6000610da583836000610c74565b90506001600160a01b0381161561053b576040516339e3563760e11b8152600060048201526024016103b5565b6000828152600660205260409020610dea82826118d3565b506040518281527ff8e1a15aba9398e019f0b49df1a4fde98ee17ae345cb5f6b5e2c27f5033e8ce79060200160405180910390a15050565b6001600160a01b038216610e5457604051630b61174360e31b81526001600160a01b03831660048201526024016103b5565b6001600160a01b03838116600081815260056020908152604080832094871680845294825291829020805460ff191686151590811790915591519182527f17307eab39ab6107e8899845ad3d59bd9653f200f220920489ca2b5937696c31910160405180910390a3505050565b6001600160a01b0383163b15610fe557604051630a85bd0160e11b81526001600160a01b0384169063150b7a0290610f039088908890879087906004016119c1565b6020604051808303816000875af1925050508015610f3e575060408051601f3d908101601f19168201909252610f3b918101906119fe565b60015b610fa7573d808015610f6c576040519150601f19603f3d011682016040523d82523d6000602084013e610f71565b606091505b508051600003610f9f57604051633250574960e11b81526001600160a01b03851660048201526024016103b5565b805181602001fd5b6001600160e01b03198116630a85bd0160e11b14610fe357604051633250574960e11b81526001600160a01b03851660048201526024016103b5565b505b5050505050565b6060610ff782610c2e565b50600061100f60408051602081019091526000815290565b9050600081511161102f576040518060200160405280600081525061105a565b80611039846111cb565b60405160200161104a929190611992565b6040516020818303038152906040525b9392505050565b808061107557506001600160a01b03821615155b1561113757600061108584610c2e565b90506001600160a01b038316158015906110b15750826001600160a01b0316816001600160a01b031614155b80156110c457506110c28184610bb0565b155b156110ed5760405163a9fbf51f60e01b81526001600160a01b03841660048201526024016103b5565b81156111355783856001600160a01b0316826001600160a01b03167f8c5be1e5ebec7d5bd14f71427d1e84f3dd0314c0f7b2291e5b200ac8c7c3b92560405160405180910390a45b505b5050600090815260046020526040902080546001600160a01b0319166001600160a01b0392909216919091179055565b61117283838361125e565b61053b576001600160a01b0383166111a057604051637e27328960e01b8152600481018290526024016103b5565b60405163177e802f60e01b81526001600160a01b0383166004820152602481018290526044016103b5565b606060006111d8836112c1565b600101905060008167ffffffffffffffff8111156111f8576111f86114ce565b6040519080825280601f01601f191660200182016040528015611222576020820181803683370190505b5090508181016020015b600019016f181899199a1a9b1b9c1cb0b131b232b360811b600a86061a8153600a850494508461122c57509392505050565b60006001600160a01b03831615801590610ba85750826001600160a01b0316846001600160a01b0316148061129857506112988484610bb0565b80610ba85750506000908152600460205260409020546001600160a01b03908116911614919050565b60008072184f03e93ff9f4daa797ed6e38ed64bf6a1f0160401b83106113005772184f03e93ff9f4daa797ed6e38ed64bf6a1f0160401b830492506040015b6d04ee2d6d415b85acef8100000000831061132c576d04ee2d6d415b85acef8100000000830492506020015b662386f26fc10000831061134a57662386f26fc10000830492506010015b6305f5e1008310611362576305f5e100830492506008015b612710831061137657612710830492506004015b60648310611388576064830492506002015b600a83106102bf5760010192915050565b6001600160e01b0319811681146113af57600080fd5b50565b6000602082840312156113c457600080fd5b813561105a81611399565b60005b838110156113ea5781810151838201526020016113d2565b50506000910152565b6000815180845261140b8160208601602086016113cf565b601f01601f19169290920160200192915050565b60208152600061105a60208301846113f3565b60006020828403121561144457600080fd5b5035919050565b80356001600160a01b038116811461146257600080fd5b919050565b6000806040838503121561147a57600080fd5b6114838361144b565b946020939093013593505050565b6000806000606084860312156114a657600080fd5b6114af8461144b565b92506114bd6020850161144b565b929592945050506040919091013590565b634e487b7160e01b600052604160045260246000fd5b60008067ffffffffffffffff8411156114ff576114ff6114ce565b50604051601f19601f85018116603f0116810181811067ffffffffffffffff8211171561152e5761152e6114ce565b60405283815290508082840185101561154657600080fd5b83836020830137600060208583010152509392505050565b600082601f83011261156f57600080fd5b61105a838335602085016114e4565b600080600080600060a0868803121561159657600080fd5b61159f8661144b565b9450602086013567ffffffffffffffff8111156115bb57600080fd5b6115c78882890161155e565b945050604086013567ffffffffffffffff8111156115e457600080fd5b6115f08882890161155e565b935050606086013567ffffffffffffffff81111561160d57600080fd5b6116198882890161155e565b925050608086013567ffffffffffffffff81111561163657600080fd5b6116428882890161155e565b9150509295509295909350565b60006020828403121561166157600080fd5b61105a8261144b565b6000806040838503121561167d57600080fd5b6116868361144b565b91506020830135801515811461169b57600080fd5b809150509250929050565b6080815260006116b960808301876113f3565b82810360208401526116cb81876113f3565b905082810360408401526116df81866113f3565b905082810360608401526116f381856113f3565b979650505050505050565b60208152600082516080602084015261171a60a08401826113f3565b90506020840151601f1984830301604085015261173782826113f3565b9150506040840151601f1984830301606085015261175582826113f3565b9150506060840151601f1984830301608085015261177382826113f3565b95945050505050565b6000806000806080858703121561179257600080fd5b61179b8561144b565b93506117a96020860161144b565b925060408501359150606085013567ffffffffffffffff8111156117cc57600080fd5b8501601f810187136117dd57600080fd5b6117ec878235602084016114e4565b91505092959194509250565b6000806040838503121561180b57600080fd5b6118148361144b565b91506118226020840161144b565b90509250929050565b600181811c9082168061183f57607f821691505b60208210810361185f57634e487b7160e01b600052602260045260246000fd5b50919050565b60006001820161188557634e487b7160e01b600052601160045260246000fd5b5060010190565b601f82111561053b57806000526020600020601f840160051c810160208510156118b35750805b601f840160051c820191505b81811015610fe557600081556001016118bf565b815167ffffffffffffffff8111156118ed576118ed6114ce565b611901816118fb845461182b565b8461188c565b6020601f821160018114611935576000831561191d5750848201515b600019600385901b1c1916600184901b178455610fe5565b600084815260208120601f198516915b828110156119655787850151825560209485019460019092019101611945565b50848210156119835786840151600019600387901b60f8161c191681555b50505050600190811b01905550565b600083516119a48184602088016113cf565b8351908301906119b88183602088016113cf565b01949350505050565b6001600160a01b03858116825284166020820152604081018390526080606082018190526000906119f4908301846113f3565b9695505050505050565b600060208284031215611a1057600080fd5b815161105a8161139956fea26469706673582212204548816e7b8dbbd110beef9a7b3b16c0996dd80136ddff0bfdd259f550969d2564736f6c634300081a0033","linkReferences":{}},"methodIdentifiers":{"access(uint256,address)":"95e9463f","addNewVideo(address[],uint256[],string,string,string,string)":"f50288f9","videoAddress()":"78eadace"},"id":41}