{"abi":[{"type":"constructor","inputs":[],"stateMutability":"nonpayable"},{"type":"function","name":"access","inputs":[{"name":"","type":"uint256","internalType":"uint256"},{"name":"","type":"address","internalType":"address"}],"outputs":[{"name":"","type":"bool","internalType":"bool"}],"stateMutability":"view"},{"type":"function","name":"addNewVideo","inputs":[{"name":"owners","type":"address[]","internalType":"address[]"},{"name":"allocation","type":"uint256[]","internalType":"uint256[]"},{"name":"videoURI","type":"string","internalType":"string"}],"outputs":[],"stateMutability":"nonpayable"},{"type":"function","name":"videoAddress","inputs":[],"outputs":[{"name":"","type":"address","internalType":"address"}],"stateMutability":"view"}],"bytecode":{"object":"0x6080604052348015600f57600080fd5b5030604051601b90606b565b6001600160a01b039091168152602001604051809103906000f0801580156046573d6000803e3d6000fd5b50600080546001600160a01b0319166001600160a01b03929092169190911790556078565b61157e806117ba83390190565b611733806100876000396000f3fe608060405234801561001057600080fd5b50600436106100415760003560e01c806308c03d521461004657806378eadace1461005b57806395e9463f1461008b575b600080fd5b610059610054366004610364565b6100c9565b005b60005461006e906001600160a01b031681565b6040516001600160a01b0390911681526020015b60405180910390f35b6100b9610099366004610458565b600160209081526000928352604080842090915290825290205460ff1681565b6040519015158152602001610082565b600083836040516100d9906101f3565b6100e4929190610484565b604051809103906000f080158015610100573d6000803e3d6000fd5b506000805460405163d96e161f60e01b81529293506001600160a01b031691829063d96e161f90610137908690889060040161050f565b6020604051808303816000875af1158015610156573d6000803e3d6000fd5b505050506040513d601f19601f8201168201806040525081019061017a919061056c565b905060005b86518110156101ea57600180600084815260200190815260200160002060008984815181106101b0576101b0610585565b6020908102919091018101516001600160a01b03168252810191909152604001600020805460ff191691151591909117905560010161017f565b50505050505050565b6111628061059c83390190565b634e487b7160e01b600052604160045260246000fd5b604051601f8201601f1916810167ffffffffffffffff8111828210171561023f5761023f610200565b604052919050565b600067ffffffffffffffff82111561026157610261610200565b5060051b60200190565b80356001600160a01b038116811461028257600080fd5b919050565b600082601f83011261029857600080fd5b81356102ab6102a682610247565b610216565b8082825260208201915060208360051b8601019250858311156102cd57600080fd5b602085015b838110156102ea5780358352602092830192016102d2565b5095945050505050565b600082601f83011261030557600080fd5b813567ffffffffffffffff81111561031f5761031f610200565b610332601f8201601f1916602001610216565b81815284602083860101111561034757600080fd5b816020850160208301376000918101602001919091529392505050565b60008060006060848603121561037957600080fd5b833567ffffffffffffffff81111561039057600080fd5b8401601f810186136103a157600080fd5b80356103af6102a682610247565b8082825260208201915060208360051b8501019250888311156103d157600080fd5b6020840193505b828410156103fa576103e98461026b565b8252602093840193909101906103d8565b9550505050602084013567ffffffffffffffff81111561041957600080fd5b61042586828701610287565b925050604084013567ffffffffffffffff81111561044257600080fd5b61044e868287016102f4565b9150509250925092565b6000806040838503121561046b57600080fd5b8235915061047b6020840161026b565b90509250929050565b6040808252835190820181905260009060208501906060840190835b818110156104c75783516001600160a01b03168352602093840193909201916001016104a0565b50508381036020808601919091528551808352918101925085019060005b818110156105035782518452602093840193909201916001016104e5565b50919695505050505050565b60018060a01b0383168152604060208201526000825180604084015260005b8181101561054b576020818601810151606086840101520161052e565b506000606082850101526060601f19601f8301168401019150509392505050565b60006020828403121561057e57600080fd5b5051919050565b634e487b7160e01b600052603260045260246000fdfe608060405234801561001057600080fd5b5060405161116238038061116283398101604081905261002f91610533565b6040518060400160405280600981526020016804f574e4552534849560bc1b815250604051806040016040528060038152602001624f575360e81b815250816003908161007c9190610692565b5060046100898282610692565b50505060005b6005548110156101355760058382815181106100ad576100ad610750565b60209081029190910181015182546001810184556000938452919092200180546001600160a01b0319166001600160a01b03909216919091179055825161012d9084908390811061010057610100610750565b602002602001015183838151811061011a5761011a610750565b602002602001015161013d60201b60201c565b60010161008f565b5050506107be565b6001600160a01b03821661016c5760405163ec442f0560e01b8152600060048201526024015b60405180910390fd5b6101786000838361017c565b5050565b61018783838361023b565b6001600160a01b0383166000908152602081905260409020546000036101b0576101b083610365565b6001600160a01b03821660009081526006602052604090205460ff16610236576001600160a01b0382166000818152600660205260408120805460ff191660019081179091556005805491820181559091527f036b6384b5eca791c62761152d0c79bb0604c104a5fb6f4eb0703f3154bb3db00180546001600160a01b03191690911790555b505050565b6001600160a01b03831661026657806002600082825461025b919061077c565b909155506102d89050565b6001600160a01b038316600090815260208190526040902054818110156102b95760405163391434e360e21b81526001600160a01b03851660048201526024810182905260448101839052606401610163565b6001600160a01b03841660009081526020819052604090209082900390555b6001600160a01b0382166102f457600280548290039055610313565b6001600160a01b03821660009081526020819052604090208054820190555b816001600160a01b0316836001600160a01b03167fddf252ad1be2c89b69c2b068fc378daa952ba7f163c4a11628f55a4df523b3ef8360405161035891815260200190565b60405180910390a3505050565b60005b600554811015610178576005818154811061038557610385610750565b6000918252602090912001546001600160a01b039081169083160361045557600580546103b490600190610795565b815481106103c4576103c4610750565b600091825260209091200154600580546001600160a01b0390921691839081106103f0576103f0610750565b9060005260206000200160006101000a8154816001600160a01b0302191690836001600160a01b03160217905550600580548061042f5761042f6107a8565b600082815260209020810160001990810180546001600160a01b03191690550190555050565b600101610368565b634e487b7160e01b600052604160045260246000fd5b604051601f8201601f191681016001600160401b038111828210171561049b5761049b61045d565b604052919050565b60006001600160401b038211156104bc576104bc61045d565b5060051b60200190565b600082601f8301126104d757600080fd5b81516104ea6104e5826104a3565b610473565b8082825260208201915060208360051b86010192508583111561050c57600080fd5b602085015b83811015610529578051835260209283019201610511565b5095945050505050565b6000806040838503121561054657600080fd5b82516001600160401b0381111561055c57600080fd5b8301601f8101851361056d57600080fd5b805161057b6104e5826104a3565b8082825260208201915060208360051b85010192508783111561059d57600080fd5b6020840193505b828410156105d45783516001600160a01b03811681146105c357600080fd5b8252602093840193909101906105a4565b6020870151909550925050506001600160401b038111156105f457600080fd5b610600858286016104c6565b9150509250929050565b600181811c9082168061061e57607f821691505b60208210810361063e57634e487b7160e01b600052602260045260246000fd5b50919050565b601f82111561023657806000526020600020601f840160051c8101602085101561066b5750805b601f840160051c820191505b8181101561068b5760008155600101610677565b5050505050565b81516001600160401b038111156106ab576106ab61045d565b6106bf816106b9845461060a565b84610644565b6020601f8211600181146106f357600083156106db5750848201515b600019600385901b1c1916600184901b17845561068b565b600084815260208120601f198516915b828110156107235787850151825560209485019460019092019101610703565b50848210156107415786840151600019600387901b60f8161c191681555b50505050600190811b01905550565b634e487b7160e01b600052603260045260246000fd5b634e487b7160e01b600052601160045260246000fd5b8082018082111561078f5761078f610766565b92915050565b8181038181111561078f5761078f610766565b634e487b7160e01b600052603160045260246000fd5b610995806107cd6000396000f3fe608060405234801561001057600080fd5b506004361061009e5760003560e01c8063313ce56711610066578063313ce5671461013057806370a082311461013f57806395d89b4114610168578063a9059cbb14610170578063dd62ed3e1461018357600080fd5b8063025e7c27146100a357806306fdde03146100d3578063095ea7b3146100e857806318160ddd1461010b57806323b872dd1461011d575b600080fd5b6100b66100b136600461077e565b6101bc565b6040516001600160a01b0390911681526020015b60405180910390f35b6100db6101e6565b6040516100ca9190610797565b6100fb6100f6366004610801565b610278565b60405190151581526020016100ca565b6002545b6040519081526020016100ca565b6100fb61012b36600461082b565b610292565b604051601281526020016100ca565b61010f61014d366004610868565b6001600160a01b031660009081526020819052604090205490565b6100db6102b6565b6100fb61017e366004610801565b6102c5565b61010f61019136600461088a565b6001600160a01b03918216600090815260016020908152604080832093909416825291909152205490565b600581815481106101cc57600080fd5b6000918252602090912001546001600160a01b0316905081565b6060600380546101f5906108bd565b80601f0160208091040260200160405190810160405280929190818152602001828054610221906108bd565b801561026e5780601f106102435761010080835404028352916020019161026e565b820191906000526020600020905b81548152906001019060200180831161025157829003601f168201915b5050505050905090565b6000336102868185856102d3565b60019150505b92915050565b6000336102a08582856102e5565b6102ab858585610368565b506001949350505050565b6060600480546101f5906108bd565b600033610286818585610368565b6102e083838360016103c7565b505050565b6001600160a01b038381166000908152600160209081526040808320938616835292905220546000198114610362578181101561035357604051637dc7a0d960e11b81526001600160a01b038416600482015260248101829052604481018390526064015b60405180910390fd5b610362848484840360006103c7565b50505050565b6001600160a01b03831661039257604051634b637e8f60e11b81526000600482015260240161034a565b6001600160a01b0382166103bc5760405163ec442f0560e01b81526000600482015260240161034a565b6102e083838361049c565b6001600160a01b0384166103f15760405163e602df0560e01b81526000600482015260240161034a565b6001600160a01b03831661041b57604051634a1406b160e11b81526000600482015260240161034a565b6001600160a01b038085166000908152600160209081526040808320938716835292905220829055801561036257826001600160a01b0316846001600160a01b03167f8c5be1e5ebec7d5bd14f71427d1e84f3dd0314c0f7b2291e5b200ac8c7c3b9258460405161048e91815260200190565b60405180910390a350505050565b6104a7838383610558565b6001600160a01b0383166000908152602081905260409020546000036104d0576104d083610682565b6001600160a01b03821660009081526006602052604090205460ff166102e057506001600160a01b03166000818152600660205260408120805460ff191660019081179091556005805491820181559091527f036b6384b5eca791c62761152d0c79bb0604c104a5fb6f4eb0703f3154bb3db00180546001600160a01b031916909117905550565b6001600160a01b038316610583578060026000828254610578919061090d565b909155506105f59050565b6001600160a01b038316600090815260208190526040902054818110156105d65760405163391434e360e21b81526001600160a01b0385166004820152602481018290526044810183905260640161034a565b6001600160a01b03841660009081526020819052604090209082900390555b6001600160a01b03821661061157600280548290039055610630565b6001600160a01b03821660009081526020819052604090208054820190555b816001600160a01b0316836001600160a01b03167fddf252ad1be2c89b69c2b068fc378daa952ba7f163c4a11628f55a4df523b3ef8360405161067591815260200190565b60405180910390a3505050565b60005b60055481101561077a57600581815481106106a2576106a2610920565b6000918252602090912001546001600160a01b039081169083160361077257600580546106d190600190610936565b815481106106e1576106e1610920565b600091825260209091200154600580546001600160a01b03909216918390811061070d5761070d610920565b9060005260206000200160006101000a8154816001600160a01b0302191690836001600160a01b03160217905550600580548061074c5761074c610949565b600082815260209020810160001990810180546001600160a01b03191690550190555050565b600101610685565b5050565b60006020828403121561079057600080fd5b5035919050565b602081526000825180602084015260005b818110156107c557602081860181015160408684010152016107a8565b506000604082850101526040601f19601f83011684010191505092915050565b80356001600160a01b03811681146107fc57600080fd5b919050565b6000806040838503121561081457600080fd5b61081d836107e5565b946020939093013593505050565b60008060006060848603121561084057600080fd5b610849846107e5565b9250610857602085016107e5565b929592945050506040919091013590565b60006020828403121561087a57600080fd5b610883826107e5565b9392505050565b6000806040838503121561089d57600080fd5b6108a6836107e5565b91506108b4602084016107e5565b90509250929050565b600181811c908216806108d157607f821691505b6020821081036108f157634e487b7160e01b600052602260045260246000fd5b50919050565b634e487b7160e01b600052601160045260246000fd5b8082018082111561028c5761028c6108f7565b634e487b7160e01b600052603260045260246000fd5b8181038181111561028c5761028c6108f7565b634e487b7160e01b600052603160045260246000fdfea26469706673582212203fd966fa0e696ee738eb6495375d281aabbf0afaf897f6d60e8a4a83c4e0356764736f6c634300081a0033a264697066735822122072fcefe3eb3c68d095302035e349a477fc5b2541789c54127a4b7b02109d61a864736f6c634300081a0033608060405234801561001057600080fd5b5060405161157e38038061157e83398101604081905261002f916100ae565b60405180604001604052806005815260200164566964656f60d81b8152506040518060400160405280600381526020016256444f60e81b8152508160009081610078919061017d565b506001610085828261017d565b5050600880546001600160a01b0319166001600160a01b0393909316929092179091555061023b565b6000602082840312156100c057600080fd5b81516001600160a01b03811681146100d757600080fd5b9392505050565b634e487b7160e01b600052604160045260246000fd5b600181811c9082168061010857607f821691505b60208210810361012857634e487b7160e01b600052602260045260246000fd5b50919050565b601f82111561017857806000526020600020601f840160051c810160208510156101555750805b601f840160051c820191505b818110156101755760008155600101610161565b50505b505050565b81516001600160401b03811115610196576101966100de565b6101aa816101a484546100f4565b8461012e565b6020601f8211600181146101de57600083156101c65750848201515b600019600385901b1c1916600184901b178455610175565b600084815260208120601f198516915b8281101561020e57878501518255602094850194600190920191016101ee565b508482101561022c5786840151600019600387901b60f8161c191681555b50505050600190811b01905550565b6113348061024a6000396000f3fe608060405234801561001057600080fd5b50600436106100f55760003560e01c806370a0823111610097578063b88d4fde11610066578063b88d4fde146101f5578063c87b56dd14610208578063d96e161f1461021b578063e985e9c51461022e57600080fd5b806370a08231146101b057806375794a3c146101d157806395d89b41146101da578063a22cb465146101e257600080fd5b8063095ea7b3116100d3578063095ea7b31461016257806323b872dd1461017757806342842e0e1461018a5780636352211e1461019d57600080fd5b806301ffc9a7146100fa57806306fdde0314610122578063081812fc14610137575b600080fd5b61010d610108366004610dfa565b610241565b60405190151581526020015b60405180910390f35b61012a61026c565b6040516101199190610e67565b61014a610145366004610e7a565b6102fe565b6040516001600160a01b039091168152602001610119565b610175610170366004610eaf565b610327565b005b610175610185366004610ed9565b610336565b610175610198366004610ed9565b6103c6565b61014a6101ab366004610e7a565b6103e6565b6101c36101be366004610f16565b6103f1565b604051908152602001610119565b6101c360075481565b61012a610439565b6101756101f0366004610f31565b610448565b610175610203366004610ffd565b610453565b61012a610216366004610e7a565b61046b565b6101c3610229366004611079565b61057c565b61010d61023c3660046110db565b6105f9565b60006001600160e01b03198216632483248360e11b1480610266575061026682610627565b92915050565b60606000805461027b9061110e565b80601f01602080910402602001604051908101604052809291908181526020018280546102a79061110e565b80156102f45780601f106102c9576101008083540402835291602001916102f4565b820191906000526020600020905b8154815290600101906020018083116102d757829003601f168201915b5050505050905090565b600061030982610677565b506000828152600460205260409020546001600160a01b0316610266565b6103328282336106b0565b5050565b6001600160a01b03821661036557604051633250574960e11b8152600060048201526024015b60405180910390fd5b60006103728383336106bd565b9050836001600160a01b0316816001600160a01b0316146103c0576040516364283d7b60e01b81526001600160a01b038086166004830152602482018490528216604482015260640161035c565b50505050565b6103e183838360405180602001604052806000815250610453565b505050565b600061026682610677565b60006001600160a01b03821661041d576040516322718ad960e21b81526000600482015260240161035c565b506001600160a01b031660009081526003602052604090205490565b60606001805461027b9061110e565b6103323383836107b6565b61045e848484610336565b6103c03385858585610855565b606061047682610677565b50600082815260066020526040812080546104909061110e565b80601f01602080910402602001604051908101604052809291908181526020018280546104bc9061110e565b80156105095780601f106104de57610100808354040283529160200191610509565b820191906000526020600020905b8154815290600101906020018083116104ec57829003601f168201915b50505050509050600061052760408051602081019091526000815290565b90508051600003610539575092915050565b81511561056b578082604051602001610553929190611148565b60405160208183030381529060405292505050919050565b61057484610980565b949350505050565b6008546000906001600160a01b031633146105c75760405162461bcd60e51b815260206004820152600b60248201526a2727aa2fa6a0a720a3a2a960a91b604482015260640161035c565b60078054600091826105d883611177565b9190505590506105e884826109f4565b6105f28184610a59565b9392505050565b6001600160a01b03918216600090815260056020908152604080832093909416825291909152205460ff1690565b60006001600160e01b031982166380ac58cd60e01b148061065857506001600160e01b03198216635b5e139f60e01b145b8061026657506301ffc9a760e01b6001600160e01b0319831614610266565b6000818152600260205260408120546001600160a01b03168061026657604051637e27328960e01b81526004810184905260240161035c565b6103e18383836001610aa9565b6000828152600260205260408120546001600160a01b03908116908316156106ea576106ea818486610baf565b6001600160a01b0381161561072857610707600085600080610aa9565b6001600160a01b038116600090815260036020526040902080546000190190555b6001600160a01b03851615610757576001600160a01b0385166000908152600360205260409020805460010190555b60008481526002602052604080822080546001600160a01b0319166001600160a01b0389811691821790925591518793918516917fddf252ad1be2c89b69c2b068fc378daa952ba7f163c4a11628f55a4df523b3ef91a4949350505050565b6001600160a01b0382166107e857604051630b61174360e31b81526001600160a01b038316600482015260240161035c565b6001600160a01b03838116600081815260056020908152604080832094871680845294825291829020805460ff191686151590811790915591519182527f17307eab39ab6107e8899845ad3d59bd9653f200f220920489ca2b5937696c31910160405180910390a3505050565b6001600160a01b0383163b1561097957604051630a85bd0160e11b81526001600160a01b0384169063150b7a029061089790889088908790879060040161119e565b6020604051808303816000875af19250505080156108d2575060408051601f3d908101601f191682019092526108cf918101906111db565b60015b61093b573d808015610900576040519150601f19603f3d011682016040523d82523d6000602084013e610905565b606091505b50805160000361093357604051633250574960e11b81526001600160a01b038516600482015260240161035c565b805181602001fd5b6001600160e01b03198116630a85bd0160e11b1461097757604051633250574960e11b81526001600160a01b038516600482015260240161035c565b505b5050505050565b606061098b82610677565b5060006109a360408051602081019091526000815290565b905060008151116109c357604051806020016040528060008152506105f2565b806109cd84610c13565b6040516020016109de929190611148565b6040516020818303038152906040529392505050565b6001600160a01b038216610a1e57604051633250574960e11b81526000600482015260240161035c565b6000610a2c838360006106bd565b90506001600160a01b038116156103e1576040516339e3563760e11b81526000600482015260240161035c565b6000828152600660205260409020610a71828261123f565b506040518281527ff8e1a15aba9398e019f0b49df1a4fde98ee17ae345cb5f6b5e2c27f5033e8ce79060200160405180910390a15050565b8080610abd57506001600160a01b03821615155b15610b7f576000610acd84610677565b90506001600160a01b03831615801590610af95750826001600160a01b0316816001600160a01b031614155b8015610b0c5750610b0a81846105f9565b155b15610b355760405163a9fbf51f60e01b81526001600160a01b038416600482015260240161035c565b8115610b7d5783856001600160a01b0316826001600160a01b03167f8c5be1e5ebec7d5bd14f71427d1e84f3dd0314c0f7b2291e5b200ac8c7c3b92560405160405180910390a45b505b5050600090815260046020526040902080546001600160a01b0319166001600160a01b0392909216919091179055565b610bba838383610ca6565b6103e1576001600160a01b038316610be857604051637e27328960e01b81526004810182905260240161035c565b60405163177e802f60e01b81526001600160a01b03831660048201526024810182905260440161035c565b60606000610c2083610d09565b600101905060008167ffffffffffffffff811115610c4057610c40610f6d565b6040519080825280601f01601f191660200182016040528015610c6a576020820181803683370190505b5090508181016020015b600019016f181899199a1a9b1b9c1cb0b131b232b360811b600a86061a8153600a8504945084610c7457509392505050565b60006001600160a01b038316158015906105745750826001600160a01b0316846001600160a01b03161480610ce05750610ce084846105f9565b806105745750506000908152600460205260409020546001600160a01b03908116911614919050565b60008072184f03e93ff9f4daa797ed6e38ed64bf6a1f0160401b8310610d485772184f03e93ff9f4daa797ed6e38ed64bf6a1f0160401b830492506040015b6d04ee2d6d415b85acef81000000008310610d74576d04ee2d6d415b85acef8100000000830492506020015b662386f26fc100008310610d9257662386f26fc10000830492506010015b6305f5e1008310610daa576305f5e100830492506008015b6127108310610dbe57612710830492506004015b60648310610dd0576064830492506002015b600a83106102665760010192915050565b6001600160e01b031981168114610df757600080fd5b50565b600060208284031215610e0c57600080fd5b81356105f281610de1565b60005b83811015610e32578181015183820152602001610e1a565b50506000910152565b60008151808452610e53816020860160208601610e17565b601f01601f19169290920160200192915050565b6020815260006105f26020830184610e3b565b600060208284031215610e8c57600080fd5b5035919050565b80356001600160a01b0381168114610eaa57600080fd5b919050565b60008060408385031215610ec257600080fd5b610ecb83610e93565b946020939093013593505050565b600080600060608486031215610eee57600080fd5b610ef784610e93565b9250610f0560208501610e93565b929592945050506040919091013590565b600060208284031215610f2857600080fd5b6105f282610e93565b60008060408385031215610f4457600080fd5b610f4d83610e93565b915060208301358015158114610f6257600080fd5b809150509250929050565b634e487b7160e01b600052604160045260246000fd5b60008067ffffffffffffffff841115610f9e57610f9e610f6d565b50604051601f19601f85018116603f0116810181811067ffffffffffffffff82111715610fcd57610fcd610f6d565b604052838152905080828401851015610fe557600080fd5b83836020830137600060208583010152509392505050565b6000806000806080858703121561101357600080fd5b61101c85610e93565b935061102a60208601610e93565b925060408501359150606085013567ffffffffffffffff81111561104d57600080fd5b8501601f8101871361105e57600080fd5b61106d87823560208401610f83565b91505092959194509250565b6000806040838503121561108c57600080fd5b61109583610e93565b9150602083013567ffffffffffffffff8111156110b157600080fd5b8301601f810185136110c257600080fd5b6110d185823560208401610f83565b9150509250929050565b600080604083850312156110ee57600080fd5b6110f783610e93565b915061110560208401610e93565b90509250929050565b600181811c9082168061112257607f821691505b60208210810361114257634e487b7160e01b600052602260045260246000fd5b50919050565b6000835161115a818460208801610e17565b83519083019061116e818360208801610e17565b01949350505050565b60006001820161119757634e487b7160e01b600052601160045260246000fd5b5060010190565b6001600160a01b03858116825284166020820152604081018390526080606082018190526000906111d190830184610e3b565b9695505050505050565b6000602082840312156111ed57600080fd5b81516105f281610de1565b601f8211156103e157806000526020600020601f840160051c8101602085101561121f5750805b601f840160051c820191505b81811015610979576000815560010161122b565b815167ffffffffffffffff81111561125957611259610f6d565b61126d81611267845461110e565b846111f8565b6020601f8211600181146112a157600083156112895750848201515b600019600385901b1c1916600184901b178455610979565b600084815260208120601f198516915b828110156112d157878501518255602094850194600190920191016112b1565b50848210156112ef5786840151600019600387901b60f8161c191681555b50505050600190811b0190555056fea26469706673582212207b2860163c57a208c204d7d3be15ff3a7354f98306de078dcba7b6102bf7b35664736f6c634300081a0033","linkReferences":{}},"methodIdentifiers":{"access(uint256,address)":"95e9463f","addNewVideo(address[],uint256[],string)":"08c03d52","videoAddress()":"78eadace"},"id":41}