{"abi":[{"type":"constructor","inputs":[{"name":"_owners","type":"address[]","internalType":"address[]"},{"name":"allocation","type":"uint256[]","internalType":"uint256[]"}],"stateMutability":"nonpayable"},{"type":"function","name":"allowance","inputs":[{"name":"owner","type":"address","internalType":"address"},{"name":"spender","type":"address","internalType":"address"}],"outputs":[{"name":"","type":"uint256","internalType":"uint256"}],"stateMutability":"view"},{"type":"function","name":"approve","inputs":[{"name":"spender","type":"address","internalType":"address"},{"name":"value","type":"uint256","internalType":"uint256"}],"outputs":[{"name":"","type":"bool","internalType":"bool"}],"stateMutability":"nonpayable"},{"type":"function","name":"balanceOf","inputs":[{"name":"account","type":"address","internalType":"address"}],"outputs":[{"name":"","type":"uint256","internalType":"uint256"}],"stateMutability":"view"},{"type":"function","name":"decimals","inputs":[],"outputs":[{"name":"","type":"uint8","internalType":"uint8"}],"stateMutability":"view"},{"type":"function","name":"name","inputs":[],"outputs":[{"name":"","type":"string","internalType":"string"}],"stateMutability":"view"},{"type":"function","name":"owners","inputs":[{"name":"","type":"uint256","internalType":"uint256"}],"outputs":[{"name":"","type":"address","internalType":"address"}],"stateMutability":"view"},{"type":"function","name":"symbol","inputs":[],"outputs":[{"name":"","type":"string","internalType":"string"}],"stateMutability":"view"},{"type":"function","name":"totalSupply","inputs":[],"outputs":[{"name":"","type":"uint256","internalType":"uint256"}],"stateMutability":"view"},{"type":"function","name":"transfer","inputs":[{"name":"to","type":"address","internalType":"address"},{"name":"value","type":"uint256","internalType":"uint256"}],"outputs":[{"name":"","type":"bool","internalType":"bool"}],"stateMutability":"nonpayable"},{"type":"function","name":"transferFrom","inputs":[{"name":"from","type":"address","internalType":"address"},{"name":"to","type":"address","internalType":"address"},{"name":"value","type":"uint256","internalType":"uint256"}],"outputs":[{"name":"","type":"bool","internalType":"bool"}],"stateMutability":"nonpayable"},{"type":"event","name":"Approval","inputs":[{"name":"owner","type":"address","indexed":true,"internalType":"address"},{"name":"spender","type":"address","indexed":true,"internalType":"address"},{"name":"value","type":"uint256","indexed":false,"internalType":"uint256"}],"anonymous":false},{"type":"event","name":"Transfer","inputs":[{"name":"from","type":"address","indexed":true,"internalType":"address"},{"name":"to","type":"address","indexed":true,"internalType":"address"},{"name":"value","type":"uint256","indexed":false,"internalType":"uint256"}],"anonymous":false},{"type":"error","name":"ERC20InsufficientAllowance","inputs":[{"name":"spender","type":"address","internalType":"address"},{"name":"allowance","type":"uint256","internalType":"uint256"},{"name":"needed","type":"uint256","internalType":"uint256"}]},{"type":"error","name":"ERC20InsufficientBalance","inputs":[{"name":"sender","type":"address","internalType":"address"},{"name":"balance","type":"uint256","internalType":"uint256"},{"name":"needed","type":"uint256","internalType":"uint256"}]},{"type":"error","name":"ERC20InvalidApprover","inputs":[{"name":"approver","type":"address","internalType":"address"}]},{"type":"error","name":"ERC20InvalidReceiver","inputs":[{"name":"receiver","type":"address","internalType":"address"}]},{"type":"error","name":"ERC20InvalidSender","inputs":[{"name":"sender","type":"address","internalType":"address"}]},{"type":"error","name":"ERC20InvalidSpender","inputs":[{"name":"spender","type":"address","internalType":"address"}]}],"bytecode":{"object":"0x608060405234801561001057600080fd5b5060405161116238038061116283398101604081905261002f91610533565b6040518060400160405280600981526020016804f574e4552534849560bc1b815250604051806040016040528060038152602001624f575360e81b815250816003908161007c9190610692565b5060046100898282610692565b50505060005b6005548110156101355760058382815181106100ad576100ad610750565b60209081029190910181015182546001810184556000938452919092200180546001600160a01b0319166001600160a01b03909216919091179055825161012d9084908390811061010057610100610750565b602002602001015183838151811061011a5761011a610750565b602002602001015161013d60201b60201c565b60010161008f565b5050506107be565b6001600160a01b03821661016c5760405163ec442f0560e01b8152600060048201526024015b60405180910390fd5b6101786000838361017c565b5050565b61018783838361023b565b6001600160a01b0383166000908152602081905260409020546000036101b0576101b083610365565b6001600160a01b03821660009081526006602052604090205460ff16610236576001600160a01b0382166000818152600660205260408120805460ff191660019081179091556005805491820181559091527f036b6384b5eca791c62761152d0c79bb0604c104a5fb6f4eb0703f3154bb3db00180546001600160a01b03191690911790555b505050565b6001600160a01b03831661026657806002600082825461025b919061077c565b909155506102d89050565b6001600160a01b038316600090815260208190526040902054818110156102b95760405163391434e360e21b81526001600160a01b03851660048201526024810182905260448101839052606401610163565b6001600160a01b03841660009081526020819052604090209082900390555b6001600160a01b0382166102f457600280548290039055610313565b6001600160a01b03821660009081526020819052604090208054820190555b816001600160a01b0316836001600160a01b03167fddf252ad1be2c89b69c2b068fc378daa952ba7f163c4a11628f55a4df523b3ef8360405161035891815260200190565b60405180910390a3505050565b60005b600554811015610178576005818154811061038557610385610750565b6000918252602090912001546001600160a01b039081169083160361045557600580546103b490600190610795565b815481106103c4576103c4610750565b600091825260209091200154600580546001600160a01b0390921691839081106103f0576103f0610750565b9060005260206000200160006101000a8154816001600160a01b0302191690836001600160a01b03160217905550600580548061042f5761042f6107a8565b600082815260209020810160001990810180546001600160a01b03191690550190555050565b600101610368565b634e487b7160e01b600052604160045260246000fd5b604051601f8201601f191681016001600160401b038111828210171561049b5761049b61045d565b604052919050565b60006001600160401b038211156104bc576104bc61045d565b5060051b60200190565b600082601f8301126104d757600080fd5b81516104ea6104e5826104a3565b610473565b8082825260208201915060208360051b86010192508583111561050c57600080fd5b602085015b83811015610529578051835260209283019201610511565b5095945050505050565b6000806040838503121561054657600080fd5b82516001600160401b0381111561055c57600080fd5b8301601f8101851361056d57600080fd5b805161057b6104e5826104a3565b8082825260208201915060208360051b85010192508783111561059d57600080fd5b6020840193505b828410156105d45783516001600160a01b03811681146105c357600080fd5b8252602093840193909101906105a4565b6020870151909550925050506001600160401b038111156105f457600080fd5b610600858286016104c6565b9150509250929050565b600181811c9082168061061e57607f821691505b60208210810361063e57634e487b7160e01b600052602260045260246000fd5b50919050565b601f82111561023657806000526020600020601f840160051c8101602085101561066b5750805b601f840160051c820191505b8181101561068b5760008155600101610677565b5050505050565b81516001600160401b038111156106ab576106ab61045d565b6106bf816106b9845461060a565b84610644565b6020601f8211600181146106f357600083156106db5750848201515b600019600385901b1c1916600184901b17845561068b565b600084815260208120601f198516915b828110156107235787850151825560209485019460019092019101610703565b50848210156107415786840151600019600387901b60f8161c191681555b50505050600190811b01905550565b634e487b7160e01b600052603260045260246000fd5b634e487b7160e01b600052601160045260246000fd5b8082018082111561078f5761078f610766565b92915050565b8181038181111561078f5761078f610766565b634e487b7160e01b600052603160045260246000fd5b610995806107cd6000396000f3fe608060405234801561001057600080fd5b506004361061009e5760003560e01c8063313ce56711610066578063313ce5671461013057806370a082311461013f57806395d89b4114610168578063a9059cbb14610170578063dd62ed3e1461018357600080fd5b8063025e7c27146100a357806306fdde03146100d3578063095ea7b3146100e857806318160ddd1461010b57806323b872dd1461011d575b600080fd5b6100b66100b136600461077e565b6101bc565b6040516001600160a01b0390911681526020015b60405180910390f35b6100db6101e6565b6040516100ca9190610797565b6100fb6100f6366004610801565b610278565b60405190151581526020016100ca565b6002545b6040519081526020016100ca565b6100fb61012b36600461082b565b610292565b604051601281526020016100ca565b61010f61014d366004610868565b6001600160a01b031660009081526020819052604090205490565b6100db6102b6565b6100fb61017e366004610801565b6102c5565b61010f61019136600461088a565b6001600160a01b03918216600090815260016020908152604080832093909416825291909152205490565b600581815481106101cc57600080fd5b6000918252602090912001546001600160a01b0316905081565b6060600380546101f5906108bd565b80601f0160208091040260200160405190810160405280929190818152602001828054610221906108bd565b801561026e5780601f106102435761010080835404028352916020019161026e565b820191906000526020600020905b81548152906001019060200180831161025157829003601f168201915b5050505050905090565b6000336102868185856102d3565b60019150505b92915050565b6000336102a08582856102e5565b6102ab858585610368565b506001949350505050565b6060600480546101f5906108bd565b600033610286818585610368565b6102e083838360016103c7565b505050565b6001600160a01b038381166000908152600160209081526040808320938616835292905220546000198114610362578181101561035357604051637dc7a0d960e11b81526001600160a01b038416600482015260248101829052604481018390526064015b60405180910390fd5b610362848484840360006103c7565b50505050565b6001600160a01b03831661039257604051634b637e8f60e11b81526000600482015260240161034a565b6001600160a01b0382166103bc5760405163ec442f0560e01b81526000600482015260240161034a565b6102e083838361049c565b6001600160a01b0384166103f15760405163e602df0560e01b81526000600482015260240161034a565b6001600160a01b03831661041b57604051634a1406b160e11b81526000600482015260240161034a565b6001600160a01b038085166000908152600160209081526040808320938716835292905220829055801561036257826001600160a01b0316846001600160a01b03167f8c5be1e5ebec7d5bd14f71427d1e84f3dd0314c0f7b2291e5b200ac8c7c3b9258460405161048e91815260200190565b60405180910390a350505050565b6104a7838383610558565b6001600160a01b0383166000908152602081905260409020546000036104d0576104d083610682565b6001600160a01b03821660009081526006602052604090205460ff166102e057506001600160a01b03166000818152600660205260408120805460ff191660019081179091556005805491820181559091527f036b6384b5eca791c62761152d0c79bb0604c104a5fb6f4eb0703f3154bb3db00180546001600160a01b031916909117905550565b6001600160a01b038316610583578060026000828254610578919061090d565b909155506105f59050565b6001600160a01b038316600090815260208190526040902054818110156105d65760405163391434e360e21b81526001600160a01b0385166004820152602481018290526044810183905260640161034a565b6001600160a01b03841660009081526020819052604090209082900390555b6001600160a01b03821661061157600280548290039055610630565b6001600160a01b03821660009081526020819052604090208054820190555b816001600160a01b0316836001600160a01b03167fddf252ad1be2c89b69c2b068fc378daa952ba7f163c4a11628f55a4df523b3ef8360405161067591815260200190565b60405180910390a3505050565b60005b60055481101561077a57600581815481106106a2576106a2610920565b6000918252602090912001546001600160a01b039081169083160361077257600580546106d190600190610936565b815481106106e1576106e1610920565b600091825260209091200154600580546001600160a01b03909216918390811061070d5761070d610920565b9060005260206000200160006101000a8154816001600160a01b0302191690836001600160a01b03160217905550600580548061074c5761074c610949565b600082815260209020810160001990810180546001600160a01b03191690550190555050565b600101610685565b5050565b60006020828403121561079057600080fd5b5035919050565b602081526000825180602084015260005b818110156107c557602081860181015160408684010152016107a8565b506000604082850101526040601f19601f83011684010191505092915050565b80356001600160a01b03811681146107fc57600080fd5b919050565b6000806040838503121561081457600080fd5b61081d836107e5565b946020939093013593505050565b60008060006060848603121561084057600080fd5b610849846107e5565b9250610857602085016107e5565b929592945050506040919091013590565b60006020828403121561087a57600080fd5b610883826107e5565b9392505050565b6000806040838503121561089d57600080fd5b6108a6836107e5565b91506108b4602084016107e5565b90509250929050565b600181811c908216806108d157607f821691505b6020821081036108f157634e487b7160e01b600052602260045260246000fd5b50919050565b634e487b7160e01b600052601160045260246000fd5b8082018082111561028c5761028c6108f7565b634e487b7160e01b600052603260045260246000fd5b8181038181111561028c5761028c6108f7565b634e487b7160e01b600052603160045260246000fdfea26469706673582212203fd966fa0e696ee738eb6495375d281aabbf0afaf897f6d60e8a4a83c4e0356764736f6c634300081a0033","linkReferences":{}},"methodIdentifiers":{"allowance(address,address)":"dd62ed3e","approve(address,uint256)":"095ea7b3","balanceOf(address)":"70a08231","decimals()":"313ce567","name()":"06fdde03","owners(uint256)":"025e7c27","symbol()":"95d89b41","totalSupply()":"18160ddd","transfer(address,uint256)":"a9059cbb","transferFrom(address,address,uint256)":"23b872dd"},"id":42}