{"abi":[{"type":"constructor","inputs":[{"name":"_owners","type":"address[]","internalType":"address[]"},{"name":"allocation","type":"uint256[]","internalType":"uint256[]"}],"stateMutability":"nonpayable"},{"type":"receive","stateMutability":"payable"},{"type":"function","name":"allowance","inputs":[{"name":"owner","type":"address","internalType":"address"},{"name":"spender","type":"address","internalType":"address"}],"outputs":[{"name":"","type":"uint256","internalType":"uint256"}],"stateMutability":"view"},{"type":"function","name":"approve","inputs":[{"name":"spender","type":"address","internalType":"address"},{"name":"value","type":"uint256","internalType":"uint256"}],"outputs":[{"name":"","type":"bool","internalType":"bool"}],"stateMutability":"nonpayable"},{"type":"function","name":"balanceOf","inputs":[{"name":"account","type":"address","internalType":"address"}],"outputs":[{"name":"","type":"uint256","internalType":"uint256"}],"stateMutability":"view"},{"type":"function","name":"decimals","inputs":[],"outputs":[{"name":"","type":"uint8","internalType":"uint8"}],"stateMutability":"view"},{"type":"function","name":"name","inputs":[],"outputs":[{"name":"","type":"string","internalType":"string"}],"stateMutability":"view"},{"type":"function","name":"owners","inputs":[{"name":"","type":"uint256","internalType":"uint256"}],"outputs":[{"name":"","type":"address","internalType":"address"}],"stateMutability":"view"},{"type":"function","name":"pay","inputs":[],"outputs":[],"stateMutability":"nonpayable"},{"type":"function","name":"symbol","inputs":[],"outputs":[{"name":"","type":"string","internalType":"string"}],"stateMutability":"view"},{"type":"function","name":"totalSupply","inputs":[],"outputs":[{"name":"","type":"uint256","internalType":"uint256"}],"stateMutability":"view"},{"type":"function","name":"transfer","inputs":[{"name":"to","type":"address","internalType":"address"},{"name":"value","type":"uint256","internalType":"uint256"}],"outputs":[{"name":"","type":"bool","internalType":"bool"}],"stateMutability":"nonpayable"},{"type":"function","name":"transferFrom","inputs":[{"name":"from","type":"address","internalType":"address"},{"name":"to","type":"address","internalType":"address"},{"name":"value","type":"uint256","internalType":"uint256"}],"outputs":[{"name":"","type":"bool","internalType":"bool"}],"stateMutability":"nonpayable"},{"type":"event","name":"Approval","inputs":[{"name":"owner","type":"address","indexed":true,"internalType":"address"},{"name":"spender","type":"address","indexed":true,"internalType":"address"},{"name":"value","type":"uint256","indexed":false,"internalType":"uint256"}],"anonymous":false},{"type":"event","name":"Transfer","inputs":[{"name":"from","type":"address","indexed":true,"internalType":"address"},{"name":"to","type":"address","indexed":true,"internalType":"address"},{"name":"value","type":"uint256","indexed":false,"internalType":"uint256"}],"anonymous":false},{"type":"error","name":"ERC20InsufficientAllowance","inputs":[{"name":"spender","type":"address","internalType":"address"},{"name":"allowance","type":"uint256","internalType":"uint256"},{"name":"needed","type":"uint256","internalType":"uint256"}]},{"type":"error","name":"ERC20InsufficientBalance","inputs":[{"name":"sender","type":"address","internalType":"address"},{"name":"balance","type":"uint256","internalType":"uint256"},{"name":"needed","type":"uint256","internalType":"uint256"}]},{"type":"error","name":"ERC20InvalidApprover","inputs":[{"name":"approver","type":"address","internalType":"address"}]},{"type":"error","name":"ERC20InvalidReceiver","inputs":[{"name":"receiver","type":"address","internalType":"address"}]},{"type":"error","name":"ERC20InvalidSender","inputs":[{"name":"sender","type":"address","internalType":"address"}]},{"type":"error","name":"ERC20InvalidSpender","inputs":[{"name":"spender","type":"address","internalType":"address"}]}],"bytecode":{"object":"0x608060405234801561001057600080fd5b5060405161145338038061145383398101604081905261002f91610533565b6040518060400160405280600981526020016804f574e4552534849560bc1b815250604051806040016040528060038152602001624f575360e81b815250816003908161007c9190610692565b5060046100898282610692565b50505060005b6005548110156101355760058382815181106100ad576100ad610750565b60209081029190910181015182546001810184556000938452919092200180546001600160a01b0319166001600160a01b03909216919091179055825161012d9084908390811061010057610100610750565b602002602001015183838151811061011a5761011a610750565b602002602001015161013d60201b60201c565b60010161008f565b5050506107be565b6001600160a01b03821661016c5760405163ec442f0560e01b8152600060048201526024015b60405180910390fd5b6101786000838361017c565b5050565b61018783838361023b565b6001600160a01b0383166000908152602081905260409020546000036101b0576101b083610365565b6001600160a01b03821660009081526006602052604090205460ff16610236576001600160a01b0382166000818152600660205260408120805460ff191660019081179091556005805491820181559091527f036b6384b5eca791c62761152d0c79bb0604c104a5fb6f4eb0703f3154bb3db00180546001600160a01b03191690911790555b505050565b6001600160a01b03831661026657806002600082825461025b919061077c565b909155506102d89050565b6001600160a01b038316600090815260208190526040902054818110156102b95760405163391434e360e21b81526001600160a01b03851660048201526024810182905260448101839052606401610163565b6001600160a01b03841660009081526020819052604090209082900390555b6001600160a01b0382166102f457600280548290039055610313565b6001600160a01b03821660009081526020819052604090208054820190555b816001600160a01b0316836001600160a01b03167fddf252ad1be2c89b69c2b068fc378daa952ba7f163c4a11628f55a4df523b3ef8360405161035891815260200190565b60405180910390a3505050565b60005b600554811015610178576005818154811061038557610385610750565b6000918252602090912001546001600160a01b039081169083160361045557600580546103b490600190610795565b815481106103c4576103c4610750565b600091825260209091200154600580546001600160a01b0390921691839081106103f0576103f0610750565b9060005260206000200160006101000a8154816001600160a01b0302191690836001600160a01b03160217905550600580548061042f5761042f6107a8565b600082815260209020810160001990810180546001600160a01b03191690550190555050565b600101610368565b634e487b7160e01b600052604160045260246000fd5b604051601f8201601f191681016001600160401b038111828210171561049b5761049b61045d565b604052919050565b60006001600160401b038211156104bc576104bc61045d565b5060051b60200190565b600082601f8301126104d757600080fd5b81516104ea6104e5826104a3565b610473565b8082825260208201915060208360051b86010192508583111561050c57600080fd5b602085015b83811015610529578051835260209283019201610511565b5095945050505050565b6000806040838503121561054657600080fd5b82516001600160401b0381111561055c57600080fd5b8301601f8101851361056d57600080fd5b805161057b6104e5826104a3565b8082825260208201915060208360051b85010192508783111561059d57600080fd5b6020840193505b828410156105d45783516001600160a01b03811681146105c357600080fd5b8252602093840193909101906105a4565b6020870151909550925050506001600160401b038111156105f457600080fd5b610600858286016104c6565b9150509250929050565b600181811c9082168061061e57607f821691505b60208210810361063e57634e487b7160e01b600052602260045260246000fd5b50919050565b601f82111561023657806000526020600020601f840160051c8101602085101561066b5750805b601f840160051c820191505b8181101561068b5760008155600101610677565b5050505050565b81516001600160401b038111156106ab576106ab61045d565b6106bf816106b9845461060a565b84610644565b6020601f8211600181146106f357600083156106db5750848201515b600019600385901b1c1916600184901b17845561068b565b600084815260208120601f198516915b828110156107235787850151825560209485019460019092019101610703565b50848210156107415786840151600019600387901b60f8161c191681555b50505050600190811b01905550565b634e487b7160e01b600052603260045260246000fd5b634e487b7160e01b600052601160045260246000fd5b8082018082111561078f5761078f610766565b92915050565b8181038181111561078f5761078f610766565b634e487b7160e01b600052603160045260246000fd5b610c86806107cd6000396000f3fe6080604052600436106100a05760003560e01c806323b872dd1161006457806323b872dd14610171578063313ce5671461019157806370a08231146101ad57806395d89b41146101e3578063a9059cbb146101f8578063dd62ed3e1461021857600080fd5b8063025e7c27146100ac57806306fdde03146100e9578063095ea7b31461010b57806318160ddd1461013b5780631b9265b81461015a57600080fd5b366100a757005b600080fd5b3480156100b857600080fd5b506100cc6100c7366004610a1d565b61025e565b6040516001600160a01b0390911681526020015b60405180910390f35b3480156100f557600080fd5b506100fe610288565b6040516100e09190610a36565b34801561011757600080fd5b5061012b610126366004610aa0565b61031a565b60405190151581526020016100e0565b34801561014757600080fd5b506002545b6040519081526020016100e0565b34801561016657600080fd5b5061016f610334565b005b34801561017d57600080fd5b5061012b61018c366004610aca565b610536565b34801561019d57600080fd5b50604051601281526020016100e0565b3480156101b957600080fd5b5061014c6101c8366004610b07565b6001600160a01b031660009081526020819052604090205490565b3480156101ef57600080fd5b506100fe61055a565b34801561020457600080fd5b5061012b610213366004610aa0565b610569565b34801561022457600080fd5b5061014c610233366004610b29565b6001600160a01b03918216600090815260016020908152604080832093909416825291909152205490565b6005818154811061026e57600080fd5b6000918252602090912001546001600160a01b0316905081565b60606003805461029790610b5c565b80601f01602080910402602001604051908101604052809291908181526020018280546102c390610b5c565b80156103105780601f106102e557610100808354040283529160200191610310565b820191906000526020600020905b8154815290600101906020018083116102f357829003601f168201915b5050505050905090565b600033610328818585610577565b60019150505b92915050565b60075460ff161561037c5760405162461bcd60e51b815260206004820152600d60248201526c496e76616c696420737461746560981b60448201526064015b60405180910390fd5b6007805460ff191660011790554760005b600554811015610528576000306001600160a01b03166318160ddd6040518163ffffffff1660e01b8152600401602060405180830381865afa1580156103d7573d6000803e3d6000fd5b505050506040513d601f19601f820116820180604052508101906103fb9190610b96565b306001600160a01b03166370a082316005858154811061041d5761041d610baf565b60009182526020909120015460405160e083901b6001600160e01b03191681526001600160a01b039091166004820152602401602060405180830381865afa15801561046d573d6000803e3d6000fd5b505050506040513d601f19601f820116820180604052508101906104919190610b96565b61049b9085610bdb565b6104a59190610bf2565b9050600080600584815481106104bd576104bd610baf565b60009182526020822001546040516001600160a01b039091169185919081818185875af1925050503d8060008114610511576040519150601f19603f3d011682016040523d82523d6000602084013e610516565b606091505b50506001909401935061038d92505050565b50506007805460ff19169055565b600033610544858285610589565b61054f858585610607565b506001949350505050565b60606004805461029790610b5c565b600033610328818585610607565b6105848383836001610666565b505050565b6001600160a01b03838116600090815260016020908152604080832093861683529290522054600019811461060157818110156105f257604051637dc7a0d960e11b81526001600160a01b03841660048201526024810182905260448101839052606401610373565b61060184848484036000610666565b50505050565b6001600160a01b03831661063157604051634b637e8f60e11b815260006004820152602401610373565b6001600160a01b03821661065b5760405163ec442f0560e01b815260006004820152602401610373565b61058483838361073b565b6001600160a01b0384166106905760405163e602df0560e01b815260006004820152602401610373565b6001600160a01b0383166106ba57604051634a1406b160e11b815260006004820152602401610373565b6001600160a01b038085166000908152600160209081526040808320938716835292905220829055801561060157826001600160a01b0316846001600160a01b03167f8c5be1e5ebec7d5bd14f71427d1e84f3dd0314c0f7b2291e5b200ac8c7c3b9258460405161072d91815260200190565b60405180910390a350505050565b6107468383836107f7565b6001600160a01b03831660009081526020819052604090205460000361076f5761076f83610921565b6001600160a01b03821660009081526006602052604090205460ff1661058457506001600160a01b03166000818152600660205260408120805460ff191660019081179091556005805491820181559091527f036b6384b5eca791c62761152d0c79bb0604c104a5fb6f4eb0703f3154bb3db00180546001600160a01b031916909117905550565b6001600160a01b0383166108225780600260008282546108179190610c14565b909155506108949050565b6001600160a01b038316600090815260208190526040902054818110156108755760405163391434e360e21b81526001600160a01b03851660048201526024810182905260448101839052606401610373565b6001600160a01b03841660009081526020819052604090209082900390555b6001600160a01b0382166108b0576002805482900390556108cf565b6001600160a01b03821660009081526020819052604090208054820190555b816001600160a01b0316836001600160a01b03167fddf252ad1be2c89b69c2b068fc378daa952ba7f163c4a11628f55a4df523b3ef8360405161091491815260200190565b60405180910390a3505050565b60005b600554811015610a19576005818154811061094157610941610baf565b6000918252602090912001546001600160a01b0390811690831603610a11576005805461097090600190610c27565b8154811061098057610980610baf565b600091825260209091200154600580546001600160a01b0390921691839081106109ac576109ac610baf565b9060005260206000200160006101000a8154816001600160a01b0302191690836001600160a01b0316021790555060058054806109eb576109eb610c3a565b600082815260209020810160001990810180546001600160a01b03191690550190555050565b600101610924565b5050565b600060208284031215610a2f57600080fd5b5035919050565b602081526000825180602084015260005b81811015610a645760208186018101516040868401015201610a47565b506000604082850101526040601f19601f83011684010191505092915050565b80356001600160a01b0381168114610a9b57600080fd5b919050565b60008060408385031215610ab357600080fd5b610abc83610a84565b946020939093013593505050565b600080600060608486031215610adf57600080fd5b610ae884610a84565b9250610af660208501610a84565b929592945050506040919091013590565b600060208284031215610b1957600080fd5b610b2282610a84565b9392505050565b60008060408385031215610b3c57600080fd5b610b4583610a84565b9150610b5360208401610a84565b90509250929050565b600181811c90821680610b7057607f821691505b602082108103610b9057634e487b7160e01b600052602260045260246000fd5b50919050565b600060208284031215610ba857600080fd5b5051919050565b634e487b7160e01b600052603260045260246000fd5b634e487b7160e01b600052601160045260246000fd5b808202811582820484141761032e5761032e610bc5565b600082610c0f57634e487b7160e01b600052601260045260246000fd5b500490565b8082018082111561032e5761032e610bc5565b8181038181111561032e5761032e610bc5565b634e487b7160e01b600052603160045260246000fdfea26469706673582212200bf2dd969fe6be39225d6481bdfde0e07a5437f4dd9d4c57d4217b04129a4ea764736f6c634300081a0033","linkReferences":{}},"methodIdentifiers":{"allowance(address,address)":"dd62ed3e","approve(address,uint256)":"095ea7b3","balanceOf(address)":"70a08231","decimals()":"313ce567","name()":"06fdde03","owners(uint256)":"025e7c27","pay()":"1b9265b8","symbol()":"95d89b41","totalSupply()":"18160ddd","transfer(address,uint256)":"a9059cbb","transferFrom(address,address,uint256)":"23b872dd"},"id":42}