{"abi":[{"type":"constructor","inputs":[{"name":"_manager","type":"address","internalType":"address"}],"stateMutability":"nonpayable"},{"type":"function","name":"addNewVideo","inputs":[{"name":"owner","type":"address","internalType":"address"},{"name":"videoURI","type":"string","internalType":"string"}],"outputs":[{"name":"","type":"uint256","internalType":"uint256"}],"stateMutability":"nonpayable"},{"type":"function","name":"approve","inputs":[{"name":"to","type":"address","internalType":"address"},{"name":"tokenId","type":"uint256","internalType":"uint256"}],"outputs":[],"stateMutability":"nonpayable"},{"type":"function","name":"balanceOf","inputs":[{"name":"owner","type":"address","internalType":"address"}],"outputs":[{"name":"","type":"uint256","internalType":"uint256"}],"stateMutability":"view"},{"type":"function","name":"getApproved","inputs":[{"name":"tokenId","type":"uint256","internalType":"uint256"}],"outputs":[{"name":"","type":"address","internalType":"address"}],"stateMutability":"view"},{"type":"function","name":"isApprovedForAll","inputs":[{"name":"owner","type":"address","internalType":"address"},{"name":"operator","type":"address","internalType":"address"}],"outputs":[{"name":"","type":"bool","internalType":"bool"}],"stateMutability":"view"},{"type":"function","name":"name","inputs":[],"outputs":[{"name":"","type":"string","internalType":"string"}],"stateMutability":"view"},{"type":"function","name":"nextTokenId","inputs":[],"outputs":[{"name":"","type":"uint256","internalType":"uint256"}],"stateMutability":"view"},{"type":"function","name":"ownerOf","inputs":[{"name":"tokenId","type":"uint256","internalType":"uint256"}],"outputs":[{"name":"","type":"address","internalType":"address"}],"stateMutability":"view"},{"type":"function","name":"safeTransferFrom","inputs":[{"name":"from","type":"address","internalType":"address"},{"name":"to","type":"address","internalType":"address"},{"name":"tokenId","type":"uint256","internalType":"uint256"}],"outputs":[],"stateMutability":"nonpayable"},{"type":"function","name":"safeTransferFrom","inputs":[{"name":"from","type":"address","internalType":"address"},{"name":"to","type":"address","internalType":"address"},{"name":"tokenId","type":"uint256","internalType":"uint256"},{"name":"data","type":"bytes","internalType":"bytes"}],"outputs":[],"stateMutability":"nonpayable"},{"type":"function","name":"setApprovalForAll","inputs":[{"name":"operator","type":"address","internalType":"address"},{"name":"approved","type":"bool","internalType":"bool"}],"outputs":[],"stateMutability":"nonpayable"},{"type":"function","name":"supportsInterface","inputs":[{"name":"interfaceId","type":"bytes4","internalType":"bytes4"}],"outputs":[{"name":"","type":"bool","internalType":"bool"}],"stateMutability":"view"},{"type":"function","name":"symbol","inputs":[],"outputs":[{"name":"","type":"string","internalType":"string"}],"stateMutability":"view"},{"type":"function","name":"tokenURI","inputs":[{"name":"tokenId","type":"uint256","internalType":"uint256"}],"outputs":[{"name":"","type":"string","internalType":"string"}],"stateMutability":"view"},{"type":"function","name":"transferFrom","inputs":[{"name":"from","type":"address","internalType":"address"},{"name":"to","type":"address","internalType":"address"},{"name":"tokenId","type":"uint256","internalType":"uint256"}],"outputs":[],"stateMutability":"nonpayable"},{"type":"event","name":"Approval","inputs":[{"name":"owner","type":"address","indexed":true,"internalType":"address"},{"name":"approved","type":"address","indexed":true,"internalType":"address"},{"name":"tokenId","type":"uint256","indexed":true,"internalType":"uint256"}],"anonymous":false},{"type":"event","name":"ApprovalForAll","inputs":[{"name":"owner","type":"address","indexed":true,"internalType":"address"},{"name":"operator","type":"address","indexed":true,"internalType":"address"},{"name":"approved","type":"bool","indexed":false,"internalType":"bool"}],"anonymous":false},{"type":"event","name":"BatchMetadataUpdate","inputs":[{"name":"_fromTokenId","type":"uint256","indexed":false,"internalType":"uint256"},{"name":"_toTokenId","type":"uint256","indexed":false,"internalType":"uint256"}],"anonymous":false},{"type":"event","name":"MetadataUpdate","inputs":[{"name":"_tokenId","type":"uint256","indexed":false,"internalType":"uint256"}],"anonymous":false},{"type":"event","name":"Transfer","inputs":[{"name":"from","type":"address","indexed":true,"internalType":"address"},{"name":"to","type":"address","indexed":true,"internalType":"address"},{"name":"tokenId","type":"uint256","indexed":true,"internalType":"uint256"}],"anonymous":false},{"type":"error","name":"ERC721IncorrectOwner","inputs":[{"name":"sender","type":"address","internalType":"address"},{"name":"tokenId","type":"uint256","internalType":"uint256"},{"name":"owner","type":"address","internalType":"address"}]},{"type":"error","name":"ERC721InsufficientApproval","inputs":[{"name":"operator","type":"address","internalType":"address"},{"name":"tokenId","type":"uint256","internalType":"uint256"}]},{"type":"error","name":"ERC721InvalidApprover","inputs":[{"name":"approver","type":"address","internalType":"address"}]},{"type":"error","name":"ERC721InvalidOperator","inputs":[{"name":"operator","type":"address","internalType":"address"}]},{"type":"error","name":"ERC721InvalidOwner","inputs":[{"name":"owner","type":"address","internalType":"address"}]},{"type":"error","name":"ERC721InvalidReceiver","inputs":[{"name":"receiver","type":"address","internalType":"address"}]},{"type":"error","name":"ERC721InvalidSender","inputs":[{"name":"sender","type":"address","internalType":"address"}]},{"type":"error","name":"ERC721NonexistentToken","inputs":[{"name":"tokenId","type":"uint256","internalType":"uint256"}]}],"bytecode":{"object":"0x608060405234801561001057600080fd5b5060405161157e38038061157e83398101604081905261002f916100ae565b60405180604001604052806005815260200164566964656f60d81b8152506040518060400160405280600381526020016256444f60e81b8152508160009081610078919061017d565b506001610085828261017d565b5050600880546001600160a01b0319166001600160a01b0393909316929092179091555061023b565b6000602082840312156100c057600080fd5b81516001600160a01b03811681146100d757600080fd5b9392505050565b634e487b7160e01b600052604160045260246000fd5b600181811c9082168061010857607f821691505b60208210810361012857634e487b7160e01b600052602260045260246000fd5b50919050565b601f82111561017857806000526020600020601f840160051c810160208510156101555750805b601f840160051c820191505b818110156101755760008155600101610161565b50505b505050565b81516001600160401b03811115610196576101966100de565b6101aa816101a484546100f4565b8461012e565b6020601f8211600181146101de57600083156101c65750848201515b600019600385901b1c1916600184901b178455610175565b600084815260208120601f198516915b8281101561020e57878501518255602094850194600190920191016101ee565b508482101561022c5786840151600019600387901b60f8161c191681555b50505050600190811b01905550565b6113348061024a6000396000f3fe608060405234801561001057600080fd5b50600436106100f55760003560e01c806370a0823111610097578063b88d4fde11610066578063b88d4fde146101f5578063c87b56dd14610208578063d96e161f1461021b578063e985e9c51461022e57600080fd5b806370a08231146101b057806375794a3c146101d157806395d89b41146101da578063a22cb465146101e257600080fd5b8063095ea7b3116100d3578063095ea7b31461016257806323b872dd1461017757806342842e0e1461018a5780636352211e1461019d57600080fd5b806301ffc9a7146100fa57806306fdde0314610122578063081812fc14610137575b600080fd5b61010d610108366004610dfa565b610241565b60405190151581526020015b60405180910390f35b61012a61026c565b6040516101199190610e67565b61014a610145366004610e7a565b6102fe565b6040516001600160a01b039091168152602001610119565b610175610170366004610eaf565b610327565b005b610175610185366004610ed9565b610336565b610175610198366004610ed9565b6103c6565b61014a6101ab366004610e7a565b6103e6565b6101c36101be366004610f16565b6103f1565b604051908152602001610119565b6101c360075481565b61012a610439565b6101756101f0366004610f31565b610448565b610175610203366004610ffd565b610453565b61012a610216366004610e7a565b61046b565b6101c3610229366004611079565b61057c565b61010d61023c3660046110db565b6105f9565b60006001600160e01b03198216632483248360e11b1480610266575061026682610627565b92915050565b60606000805461027b9061110e565b80601f01602080910402602001604051908101604052809291908181526020018280546102a79061110e565b80156102f45780601f106102c9576101008083540402835291602001916102f4565b820191906000526020600020905b8154815290600101906020018083116102d757829003601f168201915b5050505050905090565b600061030982610677565b506000828152600460205260409020546001600160a01b0316610266565b6103328282336106b0565b5050565b6001600160a01b03821661036557604051633250574960e11b8152600060048201526024015b60405180910390fd5b60006103728383336106bd565b9050836001600160a01b0316816001600160a01b0316146103c0576040516364283d7b60e01b81526001600160a01b038086166004830152602482018490528216604482015260640161035c565b50505050565b6103e183838360405180602001604052806000815250610453565b505050565b600061026682610677565b60006001600160a01b03821661041d576040516322718ad960e21b81526000600482015260240161035c565b506001600160a01b031660009081526003602052604090205490565b60606001805461027b9061110e565b6103323383836107b6565b61045e848484610336565b6103c03385858585610855565b606061047682610677565b50600082815260066020526040812080546104909061110e565b80601f01602080910402602001604051908101604052809291908181526020018280546104bc9061110e565b80156105095780601f106104de57610100808354040283529160200191610509565b820191906000526020600020905b8154815290600101906020018083116104ec57829003601f168201915b50505050509050600061052760408051602081019091526000815290565b90508051600003610539575092915050565b81511561056b578082604051602001610553929190611148565b60405160208183030381529060405292505050919050565b61057484610980565b949350505050565b6008546000906001600160a01b031633146105c75760405162461bcd60e51b815260206004820152600b60248201526a2727aa2fa6a0a720a3a2a960a91b604482015260640161035c565b60078054600091826105d883611177565b9190505590506105e884826109f4565b6105f28184610a59565b9392505050565b6001600160a01b03918216600090815260056020908152604080832093909416825291909152205460ff1690565b60006001600160e01b031982166380ac58cd60e01b148061065857506001600160e01b03198216635b5e139f60e01b145b8061026657506301ffc9a760e01b6001600160e01b0319831614610266565b6000818152600260205260408120546001600160a01b03168061026657604051637e27328960e01b81526004810184905260240161035c565b6103e18383836001610aa9565b6000828152600260205260408120546001600160a01b03908116908316156106ea576106ea818486610baf565b6001600160a01b0381161561072857610707600085600080610aa9565b6001600160a01b038116600090815260036020526040902080546000190190555b6001600160a01b03851615610757576001600160a01b0385166000908152600360205260409020805460010190555b60008481526002602052604080822080546001600160a01b0319166001600160a01b0389811691821790925591518793918516917fddf252ad1be2c89b69c2b068fc378daa952ba7f163c4a11628f55a4df523b3ef91a4949350505050565b6001600160a01b0382166107e857604051630b61174360e31b81526001600160a01b038316600482015260240161035c565b6001600160a01b03838116600081815260056020908152604080832094871680845294825291829020805460ff191686151590811790915591519182527f17307eab39ab6107e8899845ad3d59bd9653f200f220920489ca2b5937696c31910160405180910390a3505050565b6001600160a01b0383163b1561097957604051630a85bd0160e11b81526001600160a01b0384169063150b7a029061089790889088908790879060040161119e565b6020604051808303816000875af19250505080156108d2575060408051601f3d908101601f191682019092526108cf918101906111db565b60015b61093b573d808015610900576040519150601f19603f3d011682016040523d82523d6000602084013e610905565b606091505b50805160000361093357604051633250574960e11b81526001600160a01b038516600482015260240161035c565b805181602001fd5b6001600160e01b03198116630a85bd0160e11b1461097757604051633250574960e11b81526001600160a01b038516600482015260240161035c565b505b5050505050565b606061098b82610677565b5060006109a360408051602081019091526000815290565b905060008151116109c357604051806020016040528060008152506105f2565b806109cd84610c13565b6040516020016109de929190611148565b6040516020818303038152906040529392505050565b6001600160a01b038216610a1e57604051633250574960e11b81526000600482015260240161035c565b6000610a2c838360006106bd565b90506001600160a01b038116156103e1576040516339e3563760e11b81526000600482015260240161035c565b6000828152600660205260409020610a71828261123f565b506040518281527ff8e1a15aba9398e019f0b49df1a4fde98ee17ae345cb5f6b5e2c27f5033e8ce79060200160405180910390a15050565b8080610abd57506001600160a01b03821615155b15610b7f576000610acd84610677565b90506001600160a01b03831615801590610af95750826001600160a01b0316816001600160a01b031614155b8015610b0c5750610b0a81846105f9565b155b15610b355760405163a9fbf51f60e01b81526001600160a01b038416600482015260240161035c565b8115610b7d5783856001600160a01b0316826001600160a01b03167f8c5be1e5ebec7d5bd14f71427d1e84f3dd0314c0f7b2291e5b200ac8c7c3b92560405160405180910390a45b505b5050600090815260046020526040902080546001600160a01b0319166001600160a01b0392909216919091179055565b610bba838383610ca6565b6103e1576001600160a01b038316610be857604051637e27328960e01b81526004810182905260240161035c565b60405163177e802f60e01b81526001600160a01b03831660048201526024810182905260440161035c565b60606000610c2083610d09565b600101905060008167ffffffffffffffff811115610c4057610c40610f6d565b6040519080825280601f01601f191660200182016040528015610c6a576020820181803683370190505b5090508181016020015b600019016f181899199a1a9b1b9c1cb0b131b232b360811b600a86061a8153600a8504945084610c7457509392505050565b60006001600160a01b038316158015906105745750826001600160a01b0316846001600160a01b03161480610ce05750610ce084846105f9565b806105745750506000908152600460205260409020546001600160a01b03908116911614919050565b60008072184f03e93ff9f4daa797ed6e38ed64bf6a1f0160401b8310610d485772184f03e93ff9f4daa797ed6e38ed64bf6a1f0160401b830492506040015b6d04ee2d6d415b85acef81000000008310610d74576d04ee2d6d415b85acef8100000000830492506020015b662386f26fc100008310610d9257662386f26fc10000830492506010015b6305f5e1008310610daa576305f5e100830492506008015b6127108310610dbe57612710830492506004015b60648310610dd0576064830492506002015b600a83106102665760010192915050565b6001600160e01b031981168114610df757600080fd5b50565b600060208284031215610e0c57600080fd5b81356105f281610de1565b60005b83811015610e32578181015183820152602001610e1a565b50506000910152565b60008151808452610e53816020860160208601610e17565b601f01601f19169290920160200192915050565b6020815260006105f26020830184610e3b565b600060208284031215610e8c57600080fd5b5035919050565b80356001600160a01b0381168114610eaa57600080fd5b919050565b60008060408385031215610ec257600080fd5b610ecb83610e93565b946020939093013593505050565b600080600060608486031215610eee57600080fd5b610ef784610e93565b9250610f0560208501610e93565b929592945050506040919091013590565b600060208284031215610f2857600080fd5b6105f282610e93565b60008060408385031215610f4457600080fd5b610f4d83610e93565b915060208301358015158114610f6257600080fd5b809150509250929050565b634e487b7160e01b600052604160045260246000fd5b60008067ffffffffffffffff841115610f9e57610f9e610f6d565b50604051601f19601f85018116603f0116810181811067ffffffffffffffff82111715610fcd57610fcd610f6d565b604052838152905080828401851015610fe557600080fd5b83836020830137600060208583010152509392505050565b6000806000806080858703121561101357600080fd5b61101c85610e93565b935061102a60208601610e93565b925060408501359150606085013567ffffffffffffffff81111561104d57600080fd5b8501601f8101871361105e57600080fd5b61106d87823560208401610f83565b91505092959194509250565b6000806040838503121561108c57600080fd5b61109583610e93565b9150602083013567ffffffffffffffff8111156110b157600080fd5b8301601f810185136110c257600080fd5b6110d185823560208401610f83565b9150509250929050565b600080604083850312156110ee57600080fd5b6110f783610e93565b915061110560208401610e93565b90509250929050565b600181811c9082168061112257607f821691505b60208210810361114257634e487b7160e01b600052602260045260246000fd5b50919050565b6000835161115a818460208801610e17565b83519083019061116e818360208801610e17565b01949350505050565b60006001820161119757634e487b7160e01b600052601160045260246000fd5b5060010190565b6001600160a01b03858116825284166020820152604081018390526080606082018190526000906111d190830184610e3b565b9695505050505050565b6000602082840312156111ed57600080fd5b81516105f281610de1565b601f8211156103e157806000526020600020601f840160051c8101602085101561121f5750805b601f840160051c820191505b81811015610979576000815560010161122b565b815167ffffffffffffffff81111561125957611259610f6d565b61126d81611267845461110e565b846111f8565b6020601f8211600181146112a157600083156112895750848201515b600019600385901b1c1916600184901b178455610979565b600084815260208120601f198516915b828110156112d157878501518255602094850194600190920191016112b1565b50848210156112ef5786840151600019600387901b60f8161c191681555b50505050600190811b0190555056fea26469706673582212207b2860163c57a208c204d7d3be15ff3a7354f98306de078dcba7b6102bf7b35664736f6c634300081a0033","linkReferences":{}},"methodIdentifiers":{"addNewVideo(address,string)":"d96e161f","approve(address,uint256)":"095ea7b3","balanceOf(address)":"70a08231","getApproved(uint256)":"081812fc","isApprovedForAll(address,address)":"e985e9c5","name()":"06fdde03","nextTokenId()":"75794a3c","ownerOf(uint256)":"6352211e","safeTransferFrom(address,address,uint256)":"42842e0e","safeTransferFrom(address,address,uint256,bytes)":"b88d4fde","setApprovalForAll(address,bool)":"a22cb465","supportsInterface(bytes4)":"01ffc9a7","symbol()":"95d89b41","tokenURI(uint256)":"c87b56dd","transferFrom(address,address,uint256)":"23b872dd"},"id":43}