{"abi":[{"type":"constructor","inputs":[{"name":"_manager","type":"address","internalType":"address"}],"stateMutability":"nonpayable"},{"type":"function","name":"addNewVideo","inputs":[{"name":"owner","type":"address","internalType":"address"},{"name":"name","type":"string","internalType":"string"},{"name":"category","type":"string","internalType":"string"},{"name":"description","type":"string","internalType":"string"},{"name":"videoURI","type":"string","internalType":"string"}],"outputs":[{"name":"","type":"uint256","internalType":"uint256"}],"stateMutability":"nonpayable"},{"type":"function","name":"approve","inputs":[{"name":"to","type":"address","internalType":"address"},{"name":"tokenId","type":"uint256","internalType":"uint256"}],"outputs":[],"stateMutability":"nonpayable"},{"type":"function","name":"balanceOf","inputs":[{"name":"owner","type":"address","internalType":"address"}],"outputs":[{"name":"","type":"uint256","internalType":"uint256"}],"stateMutability":"view"},{"type":"function","name":"getApproved","inputs":[{"name":"tokenId","type":"uint256","internalType":"uint256"}],"outputs":[{"name":"","type":"address","internalType":"address"}],"stateMutability":"view"},{"type":"function","name":"getMetadata","inputs":[{"name":"tokenId","type":"uint256","internalType":"uint256"}],"outputs":[{"name":"","type":"tuple","internalType":"struct VideoMetadata","components":[{"name":"name","type":"string","internalType":"string"},{"name":"category","type":"string","internalType":"string"},{"name":"description","type":"string","internalType":"string"},{"name":"cid","type":"string","internalType":"string"}]}],"stateMutability":"view"},{"type":"function","name":"isApprovedForAll","inputs":[{"name":"owner","type":"address","internalType":"address"},{"name":"operator","type":"address","internalType":"address"}],"outputs":[{"name":"","type":"bool","internalType":"bool"}],"stateMutability":"view"},{"type":"function","name":"name","inputs":[],"outputs":[{"name":"","type":"string","internalType":"string"}],"stateMutability":"view"},{"type":"function","name":"nextTokenId","inputs":[],"outputs":[{"name":"","type":"uint256","internalType":"uint256"}],"stateMutability":"view"},{"type":"function","name":"ownerOf","inputs":[{"name":"tokenId","type":"uint256","internalType":"uint256"}],"outputs":[{"name":"","type":"address","internalType":"address"}],"stateMutability":"view"},{"type":"function","name":"safeTransferFrom","inputs":[{"name":"from","type":"address","internalType":"address"},{"name":"to","type":"address","internalType":"address"},{"name":"tokenId","type":"uint256","internalType":"uint256"}],"outputs":[],"stateMutability":"nonpayable"},{"type":"function","name":"safeTransferFrom","inputs":[{"name":"from","type":"address","internalType":"address"},{"name":"to","type":"address","internalType":"address"},{"name":"tokenId","type":"uint256","internalType":"uint256"},{"name":"data","type":"bytes","internalType":"bytes"}],"outputs":[],"stateMutability":"nonpayable"},{"type":"function","name":"setApprovalForAll","inputs":[{"name":"operator","type":"address","internalType":"address"},{"name":"approved","type":"bool","internalType":"bool"}],"outputs":[],"stateMutability":"nonpayable"},{"type":"function","name":"supportsInterface","inputs":[{"name":"interfaceId","type":"bytes4","internalType":"bytes4"}],"outputs":[{"name":"","type":"bool","internalType":"bool"}],"stateMutability":"view"},{"type":"function","name":"symbol","inputs":[],"outputs":[{"name":"","type":"string","internalType":"string"}],"stateMutability":"view"},{"type":"function","name":"tokenURI","inputs":[{"name":"tokenId","type":"uint256","internalType":"uint256"}],"outputs":[{"name":"","type":"string","internalType":"string"}],"stateMutability":"view"},{"type":"function","name":"transferFrom","inputs":[{"name":"from","type":"address","internalType":"address"},{"name":"to","type":"address","internalType":"address"},{"name":"tokenId","type":"uint256","internalType":"uint256"}],"outputs":[],"stateMutability":"nonpayable"},{"type":"function","name":"videoMetadata","inputs":[{"name":"","type":"uint256","internalType":"uint256"}],"outputs":[{"name":"name","type":"string","internalType":"string"},{"name":"category","type":"string","internalType":"string"},{"name":"description","type":"string","internalType":"string"},{"name":"cid","type":"string","internalType":"string"}],"stateMutability":"view"},{"type":"event","name":"Approval","inputs":[{"name":"owner","type":"address","indexed":true,"internalType":"address"},{"name":"approved","type":"address","indexed":true,"internalType":"address"},{"name":"tokenId","type":"uint256","indexed":true,"internalType":"uint256"}],"anonymous":false},{"type":"event","name":"ApprovalForAll","inputs":[{"name":"owner","type":"address","indexed":true,"internalType":"address"},{"name":"operator","type":"address","indexed":true,"internalType":"address"},{"name":"approved","type":"bool","indexed":false,"internalType":"bool"}],"anonymous":false},{"type":"event","name":"BatchMetadataUpdate","inputs":[{"name":"_fromTokenId","type":"uint256","indexed":false,"internalType":"uint256"},{"name":"_toTokenId","type":"uint256","indexed":false,"internalType":"uint256"}],"anonymous":false},{"type":"event","name":"MetadataUpdate","inputs":[{"name":"_tokenId","type":"uint256","indexed":false,"internalType":"uint256"}],"anonymous":false},{"type":"event","name":"Transfer","inputs":[{"name":"from","type":"address","indexed":true,"internalType":"address"},{"name":"to","type":"address","indexed":true,"internalType":"address"},{"name":"tokenId","type":"uint256","indexed":true,"internalType":"uint256"}],"anonymous":false},{"type":"error","name":"ERC721IncorrectOwner","inputs":[{"name":"sender","type":"address","internalType":"address"},{"name":"tokenId","type":"uint256","internalType":"uint256"},{"name":"owner","type":"address","internalType":"address"}]},{"type":"error","name":"ERC721InsufficientApproval","inputs":[{"name":"operator","type":"address","internalType":"address"},{"name":"tokenId","type":"uint256","internalType":"uint256"}]},{"type":"error","name":"ERC721InvalidApprover","inputs":[{"name":"approver","type":"address","internalType":"address"}]},{"type":"error","name":"ERC721InvalidOperator","inputs":[{"name":"operator","type":"address","internalType":"address"}]},{"type":"error","name":"ERC721InvalidOwner","inputs":[{"name":"owner","type":"address","internalType":"address"}]},{"type":"error","name":"ERC721InvalidReceiver","inputs":[{"name":"receiver","type":"address","internalType":"address"}]},{"type":"error","name":"ERC721InvalidSender","inputs":[{"name":"sender","type":"address","internalType":"address"}]},{"type":"error","name":"ERC721NonexistentToken","inputs":[{"name":"tokenId","type":"uint256","internalType":"uint256"}]}],"bytecode":{"object":"0x608060405234801561001057600080fd5b50604051611c9b380380611c9b83398101604081905261002f916100ae565b60405180604001604052806005815260200164566964656f60d81b8152506040518060400160405280600381526020016256444f60e81b8152508160009081610078919061017d565b506001610085828261017d565b5050600880546001600160a01b0319166001600160a01b0393909316929092179091555061023b565b6000602082840312156100c057600080fd5b81516001600160a01b03811681146100d757600080fd5b9392505050565b634e487b7160e01b600052604160045260246000fd5b600181811c9082168061010857607f821691505b60208210810361012857634e487b7160e01b600052602260045260246000fd5b50919050565b601f82111561017857806000526020600020601f840160051c810160208510156101555750805b601f840160051c820191505b818110156101755760008155600101610161565b50505b505050565b81516001600160401b03811115610196576101966100de565b6101aa816101a484546100f4565b8461012e565b6020601f8211600181146101de57600083156101c65750848201515b600019600385901b1c1916600184901b178455610175565b600084815260208120601f198516915b8281101561020e57878501518255602094850194600190920191016101ee565b508482101561022c5786840151600019600387901b60f8161c191681555b50505050600190811b01905550565b611a518061024a6000396000f3fe608060405234801561001057600080fd5b506004361061010b5760003560e01c806370a08231116100a2578063a449d45a11610071578063a449d45a1461021e578063a574cea414610241578063b88d4fde14610261578063c87b56dd14610274578063e985e9c51461028757600080fd5b806370a08231146101e757806375794a3c146101fa57806395d89b4114610203578063a22cb4651461020b57600080fd5b806323b872dd116100de57806323b872dd1461018d57806332670a2d146101a057806342842e0e146101c15780636352211e146101d457600080fd5b806301ffc9a71461011057806306fdde0314610138578063081812fc1461014d578063095ea7b314610178575b600080fd5b61012361011e3660046113b2565b61029a565b60405190151581526020015b60405180910390f35b6101406102c5565b60405161012f919061141f565b61016061015b366004611432565b610357565b6040516001600160a01b03909116815260200161012f565b61018b610186366004611467565b610380565b005b61018b61019b366004611491565b61038f565b6101b36101ae36600461157e565b61041f565b60405190815260200161012f565b61018b6101cf366004611491565b610520565b6101606101e2366004611432565b610540565b6101b36101f536600461164f565b61054b565b6101b360075481565b610140610593565b61018b61021936600461166a565b6105a2565b61023161022c366004611432565b6105ad565b60405161012f94939291906116a6565b61025461024f366004611432565b6107f5565b60405161012f91906116fe565b61018b61026f36600461177c565b610a87565b610140610282366004611432565b610a9f565b6101236102953660046117f8565b610bb0565b60006001600160e01b03198216632483248360e11b14806102bf57506102bf82610bde565b92915050565b6060600080546102d49061182b565b80601f01602080910402602001604051908101604052809291908181526020018280546103009061182b565b801561034d5780601f106103225761010080835404028352916020019161034d565b820191906000526020600020905b81548152906001019060200180831161033057829003601f168201915b5050505050905090565b600061036282610c2e565b506000828152600460205260409020546001600160a01b03166102bf565b61038b828233610c67565b5050565b6001600160a01b0382166103be57604051633250574960e11b8152600060048201526024015b60405180910390fd5b60006103cb838333610c74565b9050836001600160a01b0316816001600160a01b031614610419576040516364283d7b60e01b81526001600160a01b03808616600483015260248201849052821660448201526064016103b5565b50505050565b6008546000906001600160a01b0316331461046a5760405162461bcd60e51b815260206004820152600b60248201526a2727aa2fa6a0a720a3a2a960a91b60448201526064016103b5565b600780546000918261047b83611865565b91905055905061048b8782610d6d565b6104958184610dd2565b604080516080810182528781526020808201889052818301879052606082018690526000848152600990915291909120815181906104d390826118d3565b50602082015160018201906104e890826118d3565b50604082015160028201906104fd90826118d3565b506060820151600382019061051290826118d3565b509198975050505050505050565b61053b83838360405180602001604052806000815250610a87565b505050565b60006102bf82610c2e565b60006001600160a01b038216610577576040516322718ad960e21b8152600060048201526024016103b5565b506001600160a01b031660009081526003602052604090205490565b6060600180546102d49061182b565b61038b338383610e22565b6009602052600090815260409020805481906105c89061182b565b80601f01602080910402602001604051908101604052809291908181526020018280546105f49061182b565b80156106415780601f1061061657610100808354040283529160200191610641565b820191906000526020600020905b81548152906001019060200180831161062457829003601f168201915b5050505050908060010180546106569061182b565b80601f01602080910402602001604051908101604052809291908181526020018280546106829061182b565b80156106cf5780601f106106a4576101008083540402835291602001916106cf565b820191906000526020600020905b8154815290600101906020018083116106b257829003601f168201915b5050505050908060020180546106e49061182b565b80601f01602080910402602001604051908101604052809291908181526020018280546107109061182b565b801561075d5780601f106107325761010080835404028352916020019161075d565b820191906000526020600020905b81548152906001019060200180831161074057829003601f168201915b5050505050908060030180546107729061182b565b80601f016020809104026020016040519081016040528092919081815260200182805461079e9061182b565b80156107eb5780601f106107c0576101008083540402835291602001916107eb565b820191906000526020600020905b8154815290600101906020018083116107ce57829003601f168201915b5050505050905084565b6108206040518060800160405280606081526020016060815260200160608152602001606081525090565b600082815260096020526040908190208151608081019092528054829082906108489061182b565b80601f01602080910402602001604051908101604052809291908181526020018280546108749061182b565b80156108c15780601f10610896576101008083540402835291602001916108c1565b820191906000526020600020905b8154815290600101906020018083116108a457829003601f168201915b505050505081526020016001820180546108da9061182b565b80601f01602080910402602001604051908101604052809291908181526020018280546109069061182b565b80156109535780601f1061092857610100808354040283529160200191610953565b820191906000526020600020905b81548152906001019060200180831161093657829003601f168201915b5050505050815260200160028201805461096c9061182b565b80601f01602080910402602001604051908101604052809291908181526020018280546109989061182b565b80156109e55780601f106109ba576101008083540402835291602001916109e5565b820191906000526020600020905b8154815290600101906020018083116109c857829003601f168201915b505050505081526020016003820180546109fe9061182b565b80601f0160208091040260200160405190810160405280929190818152602001828054610a2a9061182b565b8015610a775780601f10610a4c57610100808354040283529160200191610a77565b820191906000526020600020905b815481529060010190602001808311610a5a57829003601f168201915b5050505050815250509050919050565b610a9284848461038f565b6104193385858585610ec1565b6060610aaa82610c2e565b5060008281526006602052604081208054610ac49061182b565b80601f0160208091040260200160405190810160405280929190818152602001828054610af09061182b565b8015610b3d5780601f10610b1257610100808354040283529160200191610b3d565b820191906000526020600020905b815481529060010190602001808311610b2057829003601f168201915b505050505090506000610b5b60408051602081019091526000815290565b90508051600003610b6d575092915050565b815115610b9f578082604051602001610b87929190611992565b60405160208183030381529060405292505050919050565b610ba884610fec565b949350505050565b6001600160a01b03918216600090815260056020908152604080832093909416825291909152205460ff1690565b60006001600160e01b031982166380ac58cd60e01b1480610c0f57506001600160e01b03198216635b5e139f60e01b145b806102bf57506301ffc9a760e01b6001600160e01b03198316146102bf565b6000818152600260205260408120546001600160a01b0316806102bf57604051637e27328960e01b8152600481018490526024016103b5565b61053b8383836001611061565b6000828152600260205260408120546001600160a01b0390811690831615610ca157610ca1818486611167565b6001600160a01b03811615610cdf57610cbe600085600080611061565b6001600160a01b038116600090815260036020526040902080546000190190555b6001600160a01b03851615610d0e576001600160a01b0385166000908152600360205260409020805460010190555b60008481526002602052604080822080546001600160a01b0319166001600160a01b0389811691821790925591518793918516917fddf252ad1be2c89b69c2b068fc378daa952ba7f163c4a11628f55a4df523b3ef91a4949350505050565b6001600160a01b038216610d9757604051633250574960e11b8152600060048201526024016103b5565b6000610da583836000610c74565b90506001600160a01b0381161561053b576040516339e3563760e11b8152600060048201526024016103b5565b6000828152600660205260409020610dea82826118d3565b506040518281527ff8e1a15aba9398e019f0b49df1a4fde98ee17ae345cb5f6b5e2c27f5033e8ce79060200160405180910390a15050565b6001600160a01b038216610e5457604051630b61174360e31b81526001600160a01b03831660048201526024016103b5565b6001600160a01b03838116600081815260056020908152604080832094871680845294825291829020805460ff191686151590811790915591519182527f17307eab39ab6107e8899845ad3d59bd9653f200f220920489ca2b5937696c31910160405180910390a3505050565b6001600160a01b0383163b15610fe557604051630a85bd0160e11b81526001600160a01b0384169063150b7a0290610f039088908890879087906004016119c1565b6020604051808303816000875af1925050508015610f3e575060408051601f3d908101601f19168201909252610f3b918101906119fe565b60015b610fa7573d808015610f6c576040519150601f19603f3d011682016040523d82523d6000602084013e610f71565b606091505b508051600003610f9f57604051633250574960e11b81526001600160a01b03851660048201526024016103b5565b805181602001fd5b6001600160e01b03198116630a85bd0160e11b14610fe357604051633250574960e11b81526001600160a01b03851660048201526024016103b5565b505b5050505050565b6060610ff782610c2e565b50600061100f60408051602081019091526000815290565b9050600081511161102f576040518060200160405280600081525061105a565b80611039846111cb565b60405160200161104a929190611992565b6040516020818303038152906040525b9392505050565b808061107557506001600160a01b03821615155b1561113757600061108584610c2e565b90506001600160a01b038316158015906110b15750826001600160a01b0316816001600160a01b031614155b80156110c457506110c28184610bb0565b155b156110ed5760405163a9fbf51f60e01b81526001600160a01b03841660048201526024016103b5565b81156111355783856001600160a01b0316826001600160a01b03167f8c5be1e5ebec7d5bd14f71427d1e84f3dd0314c0f7b2291e5b200ac8c7c3b92560405160405180910390a45b505b5050600090815260046020526040902080546001600160a01b0319166001600160a01b0392909216919091179055565b61117283838361125e565b61053b576001600160a01b0383166111a057604051637e27328960e01b8152600481018290526024016103b5565b60405163177e802f60e01b81526001600160a01b0383166004820152602481018290526044016103b5565b606060006111d8836112c1565b600101905060008167ffffffffffffffff8111156111f8576111f86114ce565b6040519080825280601f01601f191660200182016040528015611222576020820181803683370190505b5090508181016020015b600019016f181899199a1a9b1b9c1cb0b131b232b360811b600a86061a8153600a850494508461122c57509392505050565b60006001600160a01b03831615801590610ba85750826001600160a01b0316846001600160a01b0316148061129857506112988484610bb0565b80610ba85750506000908152600460205260409020546001600160a01b03908116911614919050565b60008072184f03e93ff9f4daa797ed6e38ed64bf6a1f0160401b83106113005772184f03e93ff9f4daa797ed6e38ed64bf6a1f0160401b830492506040015b6d04ee2d6d415b85acef8100000000831061132c576d04ee2d6d415b85acef8100000000830492506020015b662386f26fc10000831061134a57662386f26fc10000830492506010015b6305f5e1008310611362576305f5e100830492506008015b612710831061137657612710830492506004015b60648310611388576064830492506002015b600a83106102bf5760010192915050565b6001600160e01b0319811681146113af57600080fd5b50565b6000602082840312156113c457600080fd5b813561105a81611399565b60005b838110156113ea5781810151838201526020016113d2565b50506000910152565b6000815180845261140b8160208601602086016113cf565b601f01601f19169290920160200192915050565b60208152600061105a60208301846113f3565b60006020828403121561144457600080fd5b5035919050565b80356001600160a01b038116811461146257600080fd5b919050565b6000806040838503121561147a57600080fd5b6114838361144b565b946020939093013593505050565b6000806000606084860312156114a657600080fd5b6114af8461144b565b92506114bd6020850161144b565b929592945050506040919091013590565b634e487b7160e01b600052604160045260246000fd5b60008067ffffffffffffffff8411156114ff576114ff6114ce565b50604051601f19601f85018116603f0116810181811067ffffffffffffffff8211171561152e5761152e6114ce565b60405283815290508082840185101561154657600080fd5b83836020830137600060208583010152509392505050565b600082601f83011261156f57600080fd5b61105a838335602085016114e4565b600080600080600060a0868803121561159657600080fd5b61159f8661144b565b9450602086013567ffffffffffffffff8111156115bb57600080fd5b6115c78882890161155e565b945050604086013567ffffffffffffffff8111156115e457600080fd5b6115f08882890161155e565b935050606086013567ffffffffffffffff81111561160d57600080fd5b6116198882890161155e565b925050608086013567ffffffffffffffff81111561163657600080fd5b6116428882890161155e565b9150509295509295909350565b60006020828403121561166157600080fd5b61105a8261144b565b6000806040838503121561167d57600080fd5b6116868361144b565b91506020830135801515811461169b57600080fd5b809150509250929050565b6080815260006116b960808301876113f3565b82810360208401526116cb81876113f3565b905082810360408401526116df81866113f3565b905082810360608401526116f381856113f3565b979650505050505050565b60208152600082516080602084015261171a60a08401826113f3565b90506020840151601f1984830301604085015261173782826113f3565b9150506040840151601f1984830301606085015261175582826113f3565b9150506060840151601f1984830301608085015261177382826113f3565b95945050505050565b6000806000806080858703121561179257600080fd5b61179b8561144b565b93506117a96020860161144b565b925060408501359150606085013567ffffffffffffffff8111156117cc57600080fd5b8501601f810187136117dd57600080fd5b6117ec878235602084016114e4565b91505092959194509250565b6000806040838503121561180b57600080fd5b6118148361144b565b91506118226020840161144b565b90509250929050565b600181811c9082168061183f57607f821691505b60208210810361185f57634e487b7160e01b600052602260045260246000fd5b50919050565b60006001820161188557634e487b7160e01b600052601160045260246000fd5b5060010190565b601f82111561053b57806000526020600020601f840160051c810160208510156118b35750805b601f840160051c820191505b81811015610fe557600081556001016118bf565b815167ffffffffffffffff8111156118ed576118ed6114ce565b611901816118fb845461182b565b8461188c565b6020601f821160018114611935576000831561191d5750848201515b600019600385901b1c1916600184901b178455610fe5565b600084815260208120601f198516915b828110156119655787850151825560209485019460019092019101611945565b50848210156119835786840151600019600387901b60f8161c191681555b50505050600190811b01905550565b600083516119a48184602088016113cf565b8351908301906119b88183602088016113cf565b01949350505050565b6001600160a01b03858116825284166020820152604081018390526080606082018190526000906119f4908301846113f3565b9695505050505050565b600060208284031215611a1057600080fd5b815161105a8161139956fea26469706673582212204548816e7b8dbbd110beef9a7b3b16c0996dd80136ddff0bfdd259f550969d2564736f6c634300081a0033","linkReferences":{}},"methodIdentifiers":{"addNewVideo(address,string,string,string,string)":"32670a2d","approve(address,uint256)":"095ea7b3","balanceOf(address)":"70a08231","getApproved(uint256)":"081812fc","getMetadata(uint256)":"a574cea4","isApprovedForAll(address,address)":"e985e9c5","name()":"06fdde03","nextTokenId()":"75794a3c","ownerOf(uint256)":"6352211e","safeTransferFrom(address,address,uint256)":"42842e0e","safeTransferFrom(address,address,uint256,bytes)":"b88d4fde","setApprovalForAll(address,bool)":"a22cb465","supportsInterface(bytes4)":"01ffc9a7","symbol()":"95d89b41","tokenURI(uint256)":"c87b56dd","transferFrom(address,address,uint256)":"23b872dd","videoMetadata(uint256)":"a449d45a"},"id":43}