{"abi":[{"type":"constructor","inputs":[{"name":"_manager","type":"address","internalType":"address"}],"stateMutability":"nonpayable"},{"type":"function","name":"addNewVideo","inputs":[{"name":"owner","type":"address","internalType":"address"},{"name":"name","type":"string","internalType":"string"},{"name":"category","type":"string","internalType":"string"},{"name":"description","type":"string","internalType":"string"},{"name":"price","type":"uint256","internalType":"uint256"},{"name":"videoURI","type":"string","internalType":"string"}],"outputs":[{"name":"","type":"uint256","internalType":"uint256"}],"stateMutability":"nonpayable"},{"type":"function","name":"approve","inputs":[{"name":"to","type":"address","internalType":"address"},{"name":"tokenId","type":"uint256","internalType":"uint256"}],"outputs":[],"stateMutability":"nonpayable"},{"type":"function","name":"balanceOf","inputs":[{"name":"owner","type":"address","internalType":"address"}],"outputs":[{"name":"","type":"uint256","internalType":"uint256"}],"stateMutability":"view"},{"type":"function","name":"buy","inputs":[{"name":"videoId","type":"uint256","internalType":"uint256"}],"outputs":[{"name":"","type":"bool","internalType":"bool"}],"stateMutability":"payable"},{"type":"function","name":"getApproved","inputs":[{"name":"tokenId","type":"uint256","internalType":"uint256"}],"outputs":[{"name":"","type":"address","internalType":"address"}],"stateMutability":"view"},{"type":"function","name":"getMetadata","inputs":[{"name":"tokenId","type":"uint256","internalType":"uint256"}],"outputs":[{"name":"","type":"tuple","internalType":"struct VideoMetadata","components":[{"name":"name","type":"string","internalType":"string"},{"name":"category","type":"string","internalType":"string"},{"name":"description","type":"string","internalType":"string"},{"name":"price","type":"uint256","internalType":"uint256"},{"name":"cid","type":"string","internalType":"string"},{"name":"owner","type":"address","internalType":"address"}]}],"stateMutability":"view"},{"type":"function","name":"isApprovedForAll","inputs":[{"name":"owner","type":"address","internalType":"address"},{"name":"operator","type":"address","internalType":"address"}],"outputs":[{"name":"","type":"bool","internalType":"bool"}],"stateMutability":"view"},{"type":"function","name":"name","inputs":[],"outputs":[{"name":"","type":"string","internalType":"string"}],"stateMutability":"view"},{"type":"function","name":"nextTokenId","inputs":[],"outputs":[{"name":"","type":"uint256","internalType":"uint256"}],"stateMutability":"view"},{"type":"function","name":"ownerOf","inputs":[{"name":"tokenId","type":"uint256","internalType":"uint256"}],"outputs":[{"name":"","type":"address","internalType":"address"}],"stateMutability":"view"},{"type":"function","name":"safeTransferFrom","inputs":[{"name":"from","type":"address","internalType":"address"},{"name":"to","type":"address","internalType":"address"},{"name":"tokenId","type":"uint256","internalType":"uint256"}],"outputs":[],"stateMutability":"nonpayable"},{"type":"function","name":"safeTransferFrom","inputs":[{"name":"from","type":"address","internalType":"address"},{"name":"to","type":"address","internalType":"address"},{"name":"tokenId","type":"uint256","internalType":"uint256"},{"name":"data","type":"bytes","internalType":"bytes"}],"outputs":[],"stateMutability":"nonpayable"},{"type":"function","name":"setApprovalForAll","inputs":[{"name":"operator","type":"address","internalType":"address"},{"name":"approved","type":"bool","internalType":"bool"}],"outputs":[],"stateMutability":"nonpayable"},{"type":"function","name":"supportsInterface","inputs":[{"name":"interfaceId","type":"bytes4","internalType":"bytes4"}],"outputs":[{"name":"","type":"bool","internalType":"bool"}],"stateMutability":"view"},{"type":"function","name":"symbol","inputs":[],"outputs":[{"name":"","type":"string","internalType":"string"}],"stateMutability":"view"},{"type":"function","name":"tokenURI","inputs":[{"name":"tokenId","type":"uint256","internalType":"uint256"}],"outputs":[{"name":"","type":"string","internalType":"string"}],"stateMutability":"view"},{"type":"function","name":"transferFrom","inputs":[{"name":"from","type":"address","internalType":"address"},{"name":"to","type":"address","internalType":"address"},{"name":"tokenId","type":"uint256","internalType":"uint256"}],"outputs":[],"stateMutability":"nonpayable"},{"type":"function","name":"videoMetadata","inputs":[{"name":"","type":"uint256","internalType":"uint256"}],"outputs":[{"name":"name","type":"string","internalType":"string"},{"name":"category","type":"string","internalType":"string"},{"name":"description","type":"string","internalType":"string"},{"name":"price","type":"uint256","internalType":"uint256"},{"name":"cid","type":"string","internalType":"string"},{"name":"owner","type":"address","internalType":"address"}],"stateMutability":"view"},{"type":"event","name":"Approval","inputs":[{"name":"owner","type":"address","indexed":true,"internalType":"address"},{"name":"approved","type":"address","indexed":true,"internalType":"address"},{"name":"tokenId","type":"uint256","indexed":true,"internalType":"uint256"}],"anonymous":false},{"type":"event","name":"ApprovalForAll","inputs":[{"name":"owner","type":"address","indexed":true,"internalType":"address"},{"name":"operator","type":"address","indexed":true,"internalType":"address"},{"name":"approved","type":"bool","indexed":false,"internalType":"bool"}],"anonymous":false},{"type":"event","name":"BatchMetadataUpdate","inputs":[{"name":"_fromTokenId","type":"uint256","indexed":false,"internalType":"uint256"},{"name":"_toTokenId","type":"uint256","indexed":false,"internalType":"uint256"}],"anonymous":false},{"type":"event","name":"MetadataUpdate","inputs":[{"name":"_tokenId","type":"uint256","indexed":false,"internalType":"uint256"}],"anonymous":false},{"type":"event","name":"Transfer","inputs":[{"name":"from","type":"address","indexed":true,"internalType":"address"},{"name":"to","type":"address","indexed":true,"internalType":"address"},{"name":"tokenId","type":"uint256","indexed":true,"internalType":"uint256"}],"anonymous":false},{"type":"error","name":"ERC721IncorrectOwner","inputs":[{"name":"sender","type":"address","internalType":"address"},{"name":"tokenId","type":"uint256","internalType":"uint256"},{"name":"owner","type":"address","internalType":"address"}]},{"type":"error","name":"ERC721InsufficientApproval","inputs":[{"name":"operator","type":"address","internalType":"address"},{"name":"tokenId","type":"uint256","internalType":"uint256"}]},{"type":"error","name":"ERC721InvalidApprover","inputs":[{"name":"approver","type":"address","internalType":"address"}]},{"type":"error","name":"ERC721InvalidOperator","inputs":[{"name":"operator","type":"address","internalType":"address"}]},{"type":"error","name":"ERC721InvalidOwner","inputs":[{"name":"owner","type":"address","internalType":"address"}]},{"type":"error","name":"ERC721InvalidReceiver","inputs":[{"name":"receiver","type":"address","internalType":"address"}]},{"type":"error","name":"ERC721InvalidSender","inputs":[{"name":"sender","type":"address","internalType":"address"}]},{"type":"error","name":"ERC721NonexistentToken","inputs":[{"name":"tokenId","type":"uint256","internalType":"uint256"}]}],"bytecode":{"object":"0x608060405234801561001057600080fd5b5060405161221a38038061221a83398101604081905261002f916100ae565b60405180604001604052806005815260200164566964656f60d81b8152506040518060400160405280600381526020016256444f60e81b8152508160009081610078919061017d565b506001610085828261017d565b5050600880546001600160a01b0319166001600160a01b0393909316929092179091555061023b565b6000602082840312156100c057600080fd5b81516001600160a01b03811681146100d757600080fd5b9392505050565b634e487b7160e01b600052604160045260246000fd5b600181811c9082168061010857607f821691505b60208210810361012857634e487b7160e01b600052602260045260246000fd5b50919050565b601f82111561017857806000526020600020601f840160051c810160208510156101555750805b601f840160051c820191505b818110156101755760008155600101610161565b50505b505050565b81516001600160401b03811115610196576101966100de565b6101aa816101a484546100f4565b8461012e565b6020601f8211600181146101de57600083156101c65750848201515b600019600385901b1c1916600184901b178455610175565b600084815260208120601f198516915b8281101561020e57878501518255602094850194600190920191016101ee565b508482101561022c5786840151600019600387901b60f8161c191681555b50505050600190811b01905550565b611fd08061024a6000396000f3fe6080604052600436106101095760003560e01c806395d89b4111610095578063b88d4fde11610064578063b88d4fde146102f7578063c87b56dd14610317578063d96a094a14610337578063e633de931461034a578063e985e9c51461036a57600080fd5b806395d89b4114610263578063a22cb46514610278578063a449d45a14610298578063a574cea4146102ca57600080fd5b806323b872dd116100dc57806323b872dd146101bf57806342842e0e146101df5780636352211e146101ff57806370a082311461021f57806375794a3c1461024d57600080fd5b806301ffc9a71461010e57806306fdde0314610143578063081812fc14610165578063095ea7b31461019d575b600080fd5b34801561011a57600080fd5b5061012e6101293660046118f4565b61038a565b60405190151581526020015b60405180910390f35b34801561014f57600080fd5b506101586103b5565b60405161013a9190611961565b34801561017157600080fd5b50610185610180366004611974565b610447565b6040516001600160a01b03909116815260200161013a565b3480156101a957600080fd5b506101bd6101b83660046119a4565b610470565b005b3480156101cb57600080fd5b506101bd6101da3660046119ce565b61047f565b3480156101eb57600080fd5b506101bd6101fa3660046119ce565b61050f565b34801561020b57600080fd5b5061018561021a366004611974565b61052f565b34801561022b57600080fd5b5061023f61023a366004611a0b565b61053a565b60405190815260200161013a565b34801561025957600080fd5b5061023f60075481565b34801561026f57600080fd5b50610158610582565b34801561028457600080fd5b506101bd610293366004611a26565b610591565b3480156102a457600080fd5b506102b86102b3366004611974565b61059c565b60405161013a96959493929190611a62565b3480156102d657600080fd5b506102ea6102e5366004611974565b6107f9565b60405161013a9190611ad1565b34801561030357600080fd5b506101bd610312366004611c02565b610ac0565b34801561032357600080fd5b50610158610332366004611974565b610ad8565b61012e610345366004611974565b610be9565b34801561035657600080fd5b5061023f610365366004611c9e565b610faa565b34801561037657600080fd5b5061012e610385366004611d77565b6110f2565b60006001600160e01b03198216632483248360e11b14806103af57506103af82611120565b92915050565b6060600080546103c490611daa565b80601f01602080910402602001604051908101604052809291908181526020018280546103f090611daa565b801561043d5780601f106104125761010080835404028352916020019161043d565b820191906000526020600020905b81548152906001019060200180831161042057829003601f168201915b5050505050905090565b600061045282611170565b506000828152600460205260409020546001600160a01b03166103af565b61047b8282336111a9565b5050565b6001600160a01b0382166104ae57604051633250574960e11b8152600060048201526024015b60405180910390fd5b60006104bb8383336111b6565b9050836001600160a01b0316816001600160a01b031614610509576040516364283d7b60e01b81526001600160a01b03808616600483015260248201849052821660448201526064016104a5565b50505050565b61052a83838360405180602001604052806000815250610ac0565b505050565b60006103af82611170565b60006001600160a01b038216610566576040516322718ad960e21b8152600060048201526024016104a5565b506001600160a01b031660009081526003602052604090205490565b6060600180546103c490611daa565b61047b3383836112af565b6009602052600090815260409020805481906105b790611daa565b80601f01602080910402602001604051908101604052809291908181526020018280546105e390611daa565b80156106305780601f1061060557610100808354040283529160200191610630565b820191906000526020600020905b81548152906001019060200180831161061357829003601f168201915b50505050509080600101805461064590611daa565b80601f016020809104026020016040519081016040528092919081815260200182805461067190611daa565b80156106be5780601f10610693576101008083540402835291602001916106be565b820191906000526020600020905b8154815290600101906020018083116106a157829003601f168201915b5050505050908060020180546106d390611daa565b80601f01602080910402602001604051908101604052809291908181526020018280546106ff90611daa565b801561074c5780601f106107215761010080835404028352916020019161074c565b820191906000526020600020905b81548152906001019060200180831161072f57829003601f168201915b50505050509080600301549080600401805461076790611daa565b80601f016020809104026020016040519081016040528092919081815260200182805461079390611daa565b80156107e05780601f106107b5576101008083540402835291602001916107e0565b820191906000526020600020905b8154815290600101906020018083116107c357829003601f168201915b505050600590930154919250506001600160a01b031686565b61083b6040518060c00160405280606081526020016060815260200160608152602001600081526020016060815260200160006001600160a01b031681525090565b60008281526009602052604090819020815160c0810190925280548290829061086390611daa565b80601f016020809104026020016040519081016040528092919081815260200182805461088f90611daa565b80156108dc5780601f106108b1576101008083540402835291602001916108dc565b820191906000526020600020905b8154815290600101906020018083116108bf57829003601f168201915b505050505081526020016001820180546108f590611daa565b80601f016020809104026020016040519081016040528092919081815260200182805461092190611daa565b801561096e5780601f106109435761010080835404028352916020019161096e565b820191906000526020600020905b81548152906001019060200180831161095157829003601f168201915b5050505050815260200160028201805461098790611daa565b80601f01602080910402602001604051908101604052809291908181526020018280546109b390611daa565b8015610a005780601f106109d557610100808354040283529160200191610a00565b820191906000526020600020905b8154815290600101906020018083116109e357829003601f168201915b5050505050815260200160038201548152602001600482018054610a2390611daa565b80601f0160208091040260200160405190810160405280929190818152602001828054610a4f90611daa565b8015610a9c5780601f10610a7157610100808354040283529160200191610a9c565b820191906000526020600020905b815481529060010190602001808311610a7f57829003601f168201915b5050509183525050600591909101546001600160a01b031660209091015292915050565b610acb84848461047f565b610509338585858561134e565b6060610ae382611170565b5060008281526006602052604081208054610afd90611daa565b80601f0160208091040260200160405190810160405280929190818152602001828054610b2990611daa565b8015610b765780601f10610b4b57610100808354040283529160200191610b76565b820191906000526020600020905b815481529060010190602001808311610b5957829003601f168201915b505050505090506000610b9460408051602081019091526000815290565b90508051600003610ba6575092915050565b815115610bd8578082604051602001610bc0929190611de4565b60405160208183030381529060405292505050919050565b610be184611479565b949350505050565b6008546000906001600160a01b03163314610c345760405162461bcd60e51b815260206004820152600b60248201526a2727aa2fa6a0a720a3a2a960a91b60448201526064016104a5565b600082815260096020526040808220815160c08101909252805482908290610c5b90611daa565b80601f0160208091040260200160405190810160405280929190818152602001828054610c8790611daa565b8015610cd45780601f10610ca957610100808354040283529160200191610cd4565b820191906000526020600020905b815481529060010190602001808311610cb757829003601f168201915b50505050508152602001600182018054610ced90611daa565b80601f0160208091040260200160405190810160405280929190818152602001828054610d1990611daa565b8015610d665780601f10610d3b57610100808354040283529160200191610d66565b820191906000526020600020905b815481529060010190602001808311610d4957829003601f168201915b50505050508152602001600282018054610d7f90611daa565b80601f0160208091040260200160405190810160405280929190818152602001828054610dab90611daa565b8015610df85780601f10610dcd57610100808354040283529160200191610df8565b820191906000526020600020905b815481529060010190602001808311610ddb57829003601f168201915b5050505050815260200160038201548152602001600482018054610e1b90611daa565b80601f0160208091040260200160405190810160405280929190818152602001828054610e4790611daa565b8015610e945780601f10610e6957610100808354040283529160200191610e94565b820191906000526020600020905b815481529060010190602001808311610e7757829003601f168201915b5050509183525050600591909101546001600160a01b031660209091015260608101519091503414610efd5760405162461bcd60e51b81526020600482015260126024820152714e6f742074686520676f6f6420707269636560701b60448201526064016104a5565b6000808260a001516001600160a01b03163460405160006040518083038185875af1925050503d8060008114610f4f576040519150601f19603f3d011682016040523d82523d6000602084013e610f54565b606091505b509150915081610f9d5760405162461bcd60e51b81526020600482015260146024820152732330b4b632b2103a379039b2b7321022ba3432b960611b60448201526064016104a5565b600193505050505b919050565b6008546000906001600160a01b03163314610ff55760405162461bcd60e51b815260206004820152600b60248201526a2727aa2fa6a0a720a3a2a960a91b60448201526064016104a5565b600780546000918261100683611e13565b91905055905061101688826114ee565b6110208184611553565b6040805160c081018252888152602080820189905281830188905260608201879052608082018690526001600160a01b038b1660a08301526000848152600990915291909120815181906110749082611e81565b50602082015160018201906110899082611e81565b506040820151600282019061109e9082611e81565b5060608201516003820155608082015160048201906110bd9082611e81565b5060a09190910151600590910180546001600160a01b0319166001600160a01b03909216919091179055979650505050505050565b6001600160a01b03918216600090815260056020908152604080832093909416825291909152205460ff1690565b60006001600160e01b031982166380ac58cd60e01b148061115157506001600160e01b03198216635b5e139f60e01b145b806103af57506301ffc9a760e01b6001600160e01b03198316146103af565b6000818152600260205260408120546001600160a01b0316806103af57604051637e27328960e01b8152600481018490526024016104a5565b61052a83838360016115a3565b6000828152600260205260408120546001600160a01b03908116908316156111e3576111e38184866116a9565b6001600160a01b03811615611221576112006000856000806115a3565b6001600160a01b038116600090815260036020526040902080546000190190555b6001600160a01b03851615611250576001600160a01b0385166000908152600360205260409020805460010190555b60008481526002602052604080822080546001600160a01b0319166001600160a01b0389811691821790925591518793918516917fddf252ad1be2c89b69c2b068fc378daa952ba7f163c4a11628f55a4df523b3ef91a4949350505050565b6001600160a01b0382166112e157604051630b61174360e31b81526001600160a01b03831660048201526024016104a5565b6001600160a01b03838116600081815260056020908152604080832094871680845294825291829020805460ff191686151590811790915591519182527f17307eab39ab6107e8899845ad3d59bd9653f200f220920489ca2b5937696c31910160405180910390a3505050565b6001600160a01b0383163b1561147257604051630a85bd0160e11b81526001600160a01b0384169063150b7a0290611390908890889087908790600401611f40565b6020604051808303816000875af19250505080156113cb575060408051601f3d908101601f191682019092526113c891810190611f7d565b60015b611434573d8080156113f9576040519150601f19603f3d011682016040523d82523d6000602084013e6113fe565b606091505b50805160000361142c57604051633250574960e11b81526001600160a01b03851660048201526024016104a5565b805181602001fd5b6001600160e01b03198116630a85bd0160e11b1461147057604051633250574960e11b81526001600160a01b03851660048201526024016104a5565b505b5050505050565b606061148482611170565b50600061149c60408051602081019091526000815290565b905060008151116114bc57604051806020016040528060008152506114e7565b806114c68461170d565b6040516020016114d7929190611de4565b6040516020818303038152906040525b9392505050565b6001600160a01b03821661151857604051633250574960e11b8152600060048201526024016104a5565b6000611526838360006111b6565b90506001600160a01b0381161561052a576040516339e3563760e11b8152600060048201526024016104a5565b600082815260066020526040902061156b8282611e81565b506040518281527ff8e1a15aba9398e019f0b49df1a4fde98ee17ae345cb5f6b5e2c27f5033e8ce79060200160405180910390a15050565b80806115b757506001600160a01b03821615155b156116795760006115c784611170565b90506001600160a01b038316158015906115f35750826001600160a01b0316816001600160a01b031614155b8015611606575061160481846110f2565b155b1561162f5760405163a9fbf51f60e01b81526001600160a01b03841660048201526024016104a5565b81156116775783856001600160a01b0316826001600160a01b03167f8c5be1e5ebec7d5bd14f71427d1e84f3dd0314c0f7b2291e5b200ac8c7c3b92560405160405180910390a45b505b5050600090815260046020526040902080546001600160a01b0319166001600160a01b0392909216919091179055565b6116b48383836117a0565b61052a576001600160a01b0383166116e257604051637e27328960e01b8152600481018290526024016104a5565b60405163177e802f60e01b81526001600160a01b0383166004820152602481018290526044016104a5565b6060600061171a83611803565b600101905060008167ffffffffffffffff81111561173a5761173a611b72565b6040519080825280601f01601f191660200182016040528015611764576020820181803683370190505b5090508181016020015b600019016f181899199a1a9b1b9c1cb0b131b232b360811b600a86061a8153600a850494508461176e57509392505050565b60006001600160a01b03831615801590610be15750826001600160a01b0316846001600160a01b031614806117da57506117da84846110f2565b80610be15750506000908152600460205260409020546001600160a01b03908116911614919050565b60008072184f03e93ff9f4daa797ed6e38ed64bf6a1f0160401b83106118425772184f03e93ff9f4daa797ed6e38ed64bf6a1f0160401b830492506040015b6d04ee2d6d415b85acef8100000000831061186e576d04ee2d6d415b85acef8100000000830492506020015b662386f26fc10000831061188c57662386f26fc10000830492506010015b6305f5e10083106118a4576305f5e100830492506008015b61271083106118b857612710830492506004015b606483106118ca576064830492506002015b600a83106103af5760010192915050565b6001600160e01b0319811681146118f157600080fd5b50565b60006020828403121561190657600080fd5b81356114e7816118db565b60005b8381101561192c578181015183820152602001611914565b50506000910152565b6000815180845261194d816020860160208601611911565b601f01601f19169290920160200192915050565b6020815260006114e76020830184611935565b60006020828403121561198657600080fd5b5035919050565b80356001600160a01b0381168114610fa557600080fd5b600080604083850312156119b757600080fd5b6119c08361198d565b946020939093013593505050565b6000806000606084860312156119e357600080fd5b6119ec8461198d565b92506119fa6020850161198d565b929592945050506040919091013590565b600060208284031215611a1d57600080fd5b6114e78261198d565b60008060408385031215611a3957600080fd5b611a428361198d565b915060208301358015158114611a5757600080fd5b809150509250929050565b60c081526000611a7560c0830189611935565b8281036020840152611a878189611935565b90508281036040840152611a9b8188611935565b90508560608401528281036080840152611ab58186611935565b91505060018060a01b03831660a0830152979650505050505050565b602081526000825160c06020840152611aed60e0840182611935565b90506020840151601f19848303016040850152611b0a8282611935565b9150506040840151601f19848303016060850152611b288282611935565b915050606084015160808401526080840151601f198483030160a0850152611b508282611935565b60a095909501516001600160a01b031660c09490940193909352509192915050565b634e487b7160e01b600052604160045260246000fd5b60008067ffffffffffffffff841115611ba357611ba3611b72565b50604051601f19601f85018116603f0116810181811067ffffffffffffffff82111715611bd257611bd2611b72565b604052838152905080828401851015611bea57600080fd5b83836020830137600060208583010152509392505050565b60008060008060808587031215611c1857600080fd5b611c218561198d565b9350611c2f6020860161198d565b925060408501359150606085013567ffffffffffffffff811115611c5257600080fd5b8501601f81018713611c6357600080fd5b611c7287823560208401611b88565b91505092959194509250565b600082601f830112611c8f57600080fd5b6114e783833560208501611b88565b60008060008060008060c08789031215611cb757600080fd5b611cc08761198d565b9550602087013567ffffffffffffffff811115611cdc57600080fd5b611ce889828a01611c7e565b955050604087013567ffffffffffffffff811115611d0557600080fd5b611d1189828a01611c7e565b945050606087013567ffffffffffffffff811115611d2e57600080fd5b611d3a89828a01611c7e565b9350506080870135915060a087013567ffffffffffffffff811115611d5e57600080fd5b611d6a89828a01611c7e565b9150509295509295509295565b60008060408385031215611d8a57600080fd5b611d938361198d565b9150611da16020840161198d565b90509250929050565b600181811c90821680611dbe57607f821691505b602082108103611dde57634e487b7160e01b600052602260045260246000fd5b50919050565b60008351611df6818460208801611911565b835190830190611e0a818360208801611911565b01949350505050565b600060018201611e3357634e487b7160e01b600052601160045260246000fd5b5060010190565b601f82111561052a57806000526020600020601f840160051c81016020851015611e615750805b601f840160051c820191505b818110156114725760008155600101611e6d565b815167ffffffffffffffff811115611e9b57611e9b611b72565b611eaf81611ea98454611daa565b84611e3a565b6020601f821160018114611ee35760008315611ecb5750848201515b600019600385901b1c1916600184901b178455611472565b600084815260208120601f198516915b82811015611f135787850151825560209485019460019092019101611ef3565b5084821015611f315786840151600019600387901b60f8161c191681555b50505050600190811b01905550565b6001600160a01b0385811682528416602082015260408101839052608060608201819052600090611f7390830184611935565b9695505050505050565b600060208284031215611f8f57600080fd5b81516114e7816118db56fea26469706673582212206fb57bcbf130cfa7a682f45b4480e739eff7d243658e713d1779583df8e9856464736f6c634300081a0033","linkReferences":{}},"methodIdentifiers":{"addNewVideo(address,string,string,string,uint256,string)":"e633de93","approve(address,uint256)":"095ea7b3","balanceOf(address)":"70a08231","buy(uint256)":"d96a094a","getApproved(uint256)":"081812fc","getMetadata(uint256)":"a574cea4","isApprovedForAll(address,address)":"e985e9c5","name()":"06fdde03","nextTokenId()":"75794a3c","ownerOf(uint256)":"6352211e","safeTransferFrom(address,address,uint256)":"42842e0e","safeTransferFrom(address,address,uint256,bytes)":"b88d4fde","setApprovalForAll(address,bool)":"a22cb465","supportsInterface(bytes4)":"01ffc9a7","symbol()":"95d89b41","tokenURI(uint256)":"c87b56dd","transferFrom(address,address,uint256)":"23b872dd","videoMetadata(uint256)":"a449d45a"},"id":43}